:020000040800F2
:1000000050020020B1800008A1520008915200085F
:1000100095520008995200089D5200080000000007
:10002000000000000000000000000000A5520008D1
:10003000A952000800000000AD520008B1520008AB
:10004000F1800008F1800008F1800008F1800008CC
:10005000F1800008F1800008F1800008F1800008BC
:10006000F1800008F1800008F1800008F1800008AC
:10007000F1800008F1800008F1800008F18000089C
:10008000F1800008F1800008F1800008F18000088C
:10009000F1800008F1800008F1800008F18000087C
:1000A000F1800008D5520008F1800008F1800008B6
:1000B000F1800008F1800008F1800008F18000085C
:1000C000F1800008F1800008F1800008F18000084C
:1000D000F1800008F1800008F1800008F18000083C
:1000E000F1800008F1800008F180000800000000A5
:1000F0000000000000000000000000000000000000
:1001000000000000000000005FF808F1437870B5BF
:100110001A1F012A044602780DD9236A591004EBEC
:100120006300DB0745BF6158E369E369CB58A11C55
:10013000BDE8704018476AB98188C5884FF6E75016
:1001400081420DD985422FD9052BE6D00522002307
:10015000184E0EE0418885884FF6E7508142F1D86D
:100160004FF6F43081421FD8042BD6D0042200234E
:10017000114E04F10C05627084F878300FCE0FC573
:1001800096E8030085E8030023695A10D90704EBB9
:10019000630045BFA258E368E368D35898472046F8
:1001A000FFF7B4FF2278B8E74FF6F4318D42B4D8A8
:1001B000DAE700BF08BE0008F0BD00082DE9F84FDF
:1001C000044690F8605194F8623190F86101082279
:1001D00084F8635184F8640184F8653104F5BC71D6
:1001E00004F5B37007F086FF2D4DB4F870312D4A39
:1001F00005EB0315954204F2631638D81F0107F08A
:1002000087FB294B29483B440340284007F1006BFA
:100210008342DFF8A480DFF8A4900BF5E03B3BD1EC
:10022000B844B9446FF4B17735463F1B04F26F1AF6
:1002300007EB0B00284455F8041B07F0CBFB554592
:10024000F6D1002116F8013B1944564589B2F9D17F
:10025000484607F0EFFB4046B4F8701107F0EAFBA0
:10026000B4F870310133A4F87031BDE8F88F002381
:10027000A4F8703107F04CFB0D4D284607F088FBC1
:100280000C4B05F580659D42F7D1DFF83090DFF823
:100290002880DFF81CB0C5E707F07AFBC0E700BF95
:1002A00010C00108FFFF0108FFBF010800FCFFFFAD
:1002B00000C00108000002080EC001080CC00108BF
:1002C0002DE9F043A24D00F5AA762B6804460133D0
:1002D000304683B02B6005F021FB304610F8012B2F
:1002E0000023802A17D09ABB04F1300151F8237003
:1002F000DEB24FB1012B07D8D5F800C0ACEB070731
:10030000B7F5167F00F39380032E43D010F8012B2E
:100310000133802AE7D14FF0040C0027D4F84C6158
:1003200004F14802711C02F836C001F01F0102EB13
:10033000C60253805760C4F84C112E682A6804F135
:100340003001666441F8232010F8012C002ACBD03C
:100350007F2A50D104F13001DEB251F82370002F12
:10036000D2D04FF0040E2968D4F84CC1013104F109
:100370004802C91B0CF1010702F83CE007F01F0717
:1003800002EBCC0251605380C4F84C712A68032EF2
:100390006264BBD194F88C31002B40F0AA8094F8B1
:1003A00060212B68022AC3F3C7135CD0032A24D030
:1003B0002B6802F00102DB0584F851215FD594F827
:1003C0006121032A2ED81346012102F0030201FA0B
:1003D00002F284F8502104F5B17004F5B97101AA54
:1003E00004F26315013B062B7ED8DFE803F04B4B8C
:1003F000604B7D7D6000DEB286E703F00503A3F16C
:100400000103B3FA83F32A685B0912F4807F84F84E
:10041000513194F8622100F09780032A40F29480D1
:1004200094F861211021134684F85011D3E7C6F1E6
:10043000010C5FFA8CFCA4449CF854C1BCF1000F81
:1004400069D194F8777162630137FFB2032F226399
:1004500084F8777101D184F8772110F8012C7F2A74
:100460003FF47BAF52E703F00703A3F10103B3FAB4
:1004700083F32A685B09D20584F851319FD494F83C
:100480006121A0E740F29913B1F9006003FB06F384
:100490001B1203F50043A3F308231370854201F1F7
:1004A000020102F1010210D010F8013B9AE7B1F904
:1004B00000300132002BB8BF5B42C3F307238542F3
:1004C00002F8013C01F10201EED19DF805209DF8F2
:1004D000043004F5A87084F8532184F8523103B035
:1004E000BDE8F04305F0BCB9B1F90030DB11137081
:1004F000D4E700230F21012204F5A87084F85011DD
:1005000084F8512184F8523184F8533103B0BDE8A6
:10051000F04305F0A5B94FF00409D4F84C8104F17B
:10052000480C08F1010E0CF838900EF01F0E0CEB81
:10053000C80CCCF80470ACF80230C4F84CE12F6859
:10054000676441F82320DFE694F861313CE700BF9F
:10055000840D00202DE9F04190F860510169828AF4
:10056000078BC36982B0012DADF80010ADF80220F1
:10057000ADF80470ADF8063076D0002D33D00025EC
:10058000B74C637825701A1F012A40F21D830022A0
:10059000236ADD074FF000054FEA630104EB6300B7
:1005A00045BF6158E369E369CB58AE49984794F871
:1005B000A53484F8A4541A1F012A40F24482002270
:1005C000A94ED4F8C434591006EB6300DB0745BFCD
:1005D0007158D4F8C034D4F8C034CB58A34902B011
:1005E000BDE8F04118476B461C4603CB9D4E16F8FC
:1005F000013C3060A3F1040CBCF1010F716006F8FE
:10060000025C03CCA6F10204C6F8A404C6F8A81440
:1006100040F27C8100220027236A5910DE0704EB98
:10062000630045BF6158E369E369CB588D4998473A
:1006300094F8A53484F8A4741A1F012A40F2E880C3
:10064000894ED4F8C43489495A1006EB6300DB079D
:1006500045BFB258D4F8C034D4F8C034D3582A4671
:1006600002B0BDE8F04118477D4C01986278009BCC
:10067000111F01292570C4F8A604C4F8023040F205
:1006800086800122236A5910DE0704EB630045BF10
:100690006158E369E369CB5872499847012294F89D
:1006A000A53484F8A4241A1F012AC9D84FF6E751AB
:1006B000B4F8A624B4F8A8048A4200F21D834FF6C9
:1006C000F4318A4200F22F83042BB9D04FF0040C8E
:1006D0000027674E674D0FCE0FC596E80300D4F88C
:1006E000B434A5F11C0685E803005A1006EB63003C
:1006F000DB0784F8A5C484F81C7540F1AE80B258BD
:10070000D4F8B034D358984794F8A5341A1F012A66
:1007100094F8A42400F2E880002A40F0E683B4F8BC
:10072000A804B4F8AA144FF6E755A84240F2D783BC
:10073000A94200F2DF834FF6F430814200F2D48008
:10074000042B00F0D1804FF0040E4FF0000C484F06
:10075000484D0FCF0FC597E80300D4F8B43485E8AF
:1007600003005A10DD0706EB630045BFB258D4F80A
:10077000B034D4F8B034D35884F8A5E484F81CC558
:1007800098473948FFF7C2FC94F8A424ACE04FF630
:10079000E75099B281424FEA134300F2B7824FF615
:1007A000F430814200F2C582042A3FF46AAF4FF070
:1007B000040E4FF0000C2E4F2F4E0FCF0FC697E8B0
:1007C0000300236986E803005A10D90704EB63008D
:1007D00045BFA258E368E368D35884F801E084F881
:1007E00078C0984763781A1F012A227840F247831D
:1007F000236A1C4E5910DF0704EB630045BF6158A4
:10080000E369E369CB583146984716F8022C39E77B
:100810004FF6E751B4F8A824B4F8AA048A422FD9B5
:10082000884231D9052B3FF40BAF4FF0050C134E26
:10083000104D0FCE0FC596E80300D4F8B434A5F1DF
:100840001C0685E803005A1006EB6300DB0784F8FA
:100850001C7584F8A5C43FF552AFD4F8B03452E704
:100860005002002052020020F4060020F60600206C
:10087000F0BD0008000700205C02002008BE000850
:100880004FF6F4318A4204D94FF6F43290423FF6E3
:10089000D7AE042B3FF4D4AE00274FF0040C9F4E8C
:1008A0009F4D0FCE0FC596E80300D4F8B434A5F1E0
:1008B0001C065A1084F81C75DF0748BFB25885E83B
:1008C000030006EB63004ABFD4F8B034D4F8B03468
:1008D000D35884F8A5C4984794F8A5341A1F012A60
:1008E00094F8A42440F23F82D4F8C4345910DD07B0
:1008F00006EB630045BF7158D4F8C034D4F8C03457
:10090000CB588849984794F8A4549AE64FF6E75193
:100910008A425AD98F425CD9052B3FF47BAE4FF007
:10092000050EDFF810C206F10A07BCE80F000FC77A
:100930009CE80300236987E803005A10DF0704EBF3
:10094000630045BFA258E368E368D35884F8785041
:1009500084F801E0984763781A1F012A227863D847
:10096000002A40F0C183A088E1884FF6E757B842DB
:1009700040F2B483B94200F278824FF6F4308142FB
:1009800052D8042B50D04FF004084FF0000EDFF87F
:100990008CC1654FBCE80F000FC79CE803002369BA
:1009A00087E803005A1004EB6300DB0745BFA25839
:1009B000E368E368D35884F878E084F801809847C6
:1009C0005A48FFF7A3FB22782EE04FF6F4318A4213
:1009D00004D94FF6F43297423FF61CAE042B3FF495
:1009E00019AE4FF0000E4FF00408DFF830C14E4F43
:1009F000BCE80F000FC79CE80300236987E80300E9
:100A00005A10D90704EB630045BFA258E368E368B6
:100A1000D35884F8018084F878E0984763781A1FE7
:100A2000012A227840F21482236A5910DF0704EB6E
:100A3000630045BF6158E369E369CB583C49984777
:100A400016F8022CE7E54FF6E751B4F8A824B4F8FD
:100A5000AA048A4272D9884274D9052B3FF4AFADFB
:100A60004FF0050C334E2E4F0FCE0FC796E8030004
:100A7000D4F8B434A7F11C065A1087E8030006EB3B
:100A80006300DB0745BFB258D4F8B034D4F8B034B3
:100A9000D35884F81C5584F8A5C4984794F8A53415
:100AA0001A1F012A94F8A4247CD8002A40F02E832F
:100AB000B4F8A804B4F8AA144FF6E755A84240F2D7
:100AC0001F83A94200F2AC814FF6F430814269D80D
:100AD000042B67D04FF0040E4FF0000C0F4F104D59
:100AE0000FCF0FC597E80300D4F8B43485E80300AE
:100AF0005A10DD0706EB630045BFB258D4F8B03496
:100B0000D4F8B034D35884F8A5E484F81CC59847C9
:100B10000948FFF7FBFA94F8A42443E0F0BD00086D
:100B200000070020F60600205C0200205002002092
:100B30005202002008BE0008F40600204FF6F431EF
:100B40008A4204D94FF6F43290423FF638AD042B76
:100B50003FF435AD00274FF0040CB64EB64D0FCE26
:100B60000FC596E80300D4F8B434A5F11C065A105A
:100B700084F81C75DF0748BFB25885E8030006EB10
:100B800063004ABFD4F8B034D4F8B034D35884F8F2
:100B9000A5C4984794F8A5341A1F012A94F8A424F0
:100BA00040F23081D4F8C4345910DD0706EB6300FD
:100BB00045BF7158D4F8C034D4F8C034CB589F49DD
:100BC000984794F8A424FCE44FF6E751A288E08803
:100BD0008A4255D9884257D9052B3FF4D8AC4FF0FB
:100BE000050C974F04F10C060FCF0FC697E80300D2
:100BF000236986E803005A10DF0704EB630045BF52
:100C0000A258E368E368D35884F8785084F801C0A8
:100C1000984763781A1F012A22785CD8002A40F08E
:100C20006C82A088E1884FF6E755A84240F25F82C7
:100C3000A94200F291804FF6F43081424BD8042B48
:100C400049D04FF0040C00277A4E7E4D0FCE0FC5D1
:100C500096E80300236985E803005A10DD0704EBDA
:100C6000630045BFA258E368E368D35884F801C025
:100C700084F8787098477448FFF748FA22782AE099
:100C80004FF6F4318A4204D94FF6F43290423FF6DF
:100C90007EAC042B3FF47BAC4FF0040C0027654E78
:100CA000684D0FCE0FC596E80300236985E8030061
:100CB0005A10DE0704EB630045BFA258E368E368FF
:100CC000D35884F801C084F87870984763781A1F65
:100CD000012A227833D9236A5910DE0704EB630016
:100CE00044BF6158E369594E4CBFCB58E369314664
:100CF000984716F8022C4BE4884214D9052B3FF490
:100D00009FAC4FF0050C00274D4EE3E4834210D911
:100D1000052A3FF4B6AC4FF0050E4FF0000C484FDB
:100D200004F10C0649E54FF6F43290427FF6CCAC64
:100D300086E44FF6F4318B423FF6A3AC34E5002A4B
:100D400040F01C81A088E5884FF6E751884240F2C8
:100D5000DF808D4240F2A081052BBCD04FF0050C06
:100D60000027374E71E7002A40F01181B4F8A8043B
:100D7000B4F8AA544FF6E751884240F202818D42FE
:100D800000F2B8804FF6F4318D423FF6ADAD042B42
:100D90003FF4AAAD4FF0040E4FF0000C254F264D46
:100DA0000FCF0FC597E80300D4F8B43485E80300EB
:100DB0005A10D90706EB630045BFB258D4F8B034D7
:100DC000D4F8B034D35884F8A5E484F81CC5984707
:100DD00094F8A5341A1F012A40F21682D4F8C434BC
:100DE00016495A10DF0706EB630045BFB258D4F826
:100DF000C034D4F8C034D35894F8A424984794F855
:100E0000A42471E5002A7ED1B4F8A804B4F8AA5449
:100E10004FF6E751884240F2BF808D4240F2368162
:100E2000052B3FF4BFAE4FF0050E4FF0000C044F02
:100E300055E600BFF0BD000800070020F6060020C0
:100E400008BE00085C020020500200205202002070
:100E5000002A40F01881A088E7884FF6E7518842C1
:100E600040F2D9808F4240F21D81052B3FF4DCAD6A
:100E70004FF005084FF0000EDFF808C389E5002A9F
:100E800040F02381A088E1884FF6E756B04240F257
:100E90000F81B14240F21C81052B3FF4A9AC4FF009
:100EA000050E4FF0000CB74FB74E0FCF0FC697E8A7
:100EB0000300236986E803005A1004EB6300DB0794
:100EC00045BFA258E368E368D35884F801E084F88A
:100ED00078C09847AD48FFF719F9227888E44FF6B3
:100EE000F435A8427FF62CAC25E4B4F8A604B4F897
:100EF000A81418E4052B3FF4F7AC4FF0050E4FF0A3
:100F0000000CA04F24E4B4F8A604B4F8A8547FE77A
:100F10004FF6F431884200F2BF80042B3FF4DBAE81
:100F20004FF0040C00279A4E974D0FCE0FC596E850
:100F30000300236985E803005A10D90704EB630016
:100F400045BFA258E368E368D35884F801C084F829
:100F50007870984763781A1F012A40F28B81236AC0
:100F60008C495A10DF0704EB630045BFA258E369C0
:100F7000E369D358227898472278ACE66088A58840
:100F8000E2E64FF6F43188427FF601AFFAE6B4F8B4
:100F9000A604B4F8A854EDE64FF6F431884275D8AB
:100FA000042B3FF4FFAD4FF0040E4FF0000C784FD0
:100FB000794D0FCF0FC597E80300D4F8B43485E816
:100FC00003005A10D90706EB630045BFB258D4F8A6
:100FD000B034D4F8B034D35884F8A5E484F81CC5F0
:100FE000984794F8A5341A1F012A40F29480D4F847
:100FF000C4346A495A10DF0706EB630045BFB25894
:10100000D4F8C034D4F8C034D35894F8A424984702
:1010100094F8A424C6E54FF6F431884242D8042B54
:101020003FF402AD4FF0000E4FF00408DFF860C14E
:10103000554FBCE80F000FC79CE80300236987E801
:1010400003005A10DF0704EB630045BFA258E368B2
:10105000E368D35884F8018084F878E0984763788F
:101060001A1F012A40F29E80236A4A495A1004EB53
:101070006300DB0745BFA258E369E369D3582278D0
:1010800098472278D0E46088A788E6E64FF6F431E6
:101090008D423FF687AD83E74FF6F4318D423FF640
:1010A0001AAE3AE74FF6F4318F423FF6BDACB6E7E1
:1010B0004FF6F436B0420BD8042B3FF499AB4FF007
:1010C000040E4FF0000C324FEEE66088A188DBE69C
:1010D0004FF6F43081423FF68BABEDE74FF6F43735
:1010E000B8427FF64EAC48E46088A1883DE44FF6F4
:1010F000F435A8427FF6A3AD9DE56088A18892E50E
:101100004FF6F435A8427FF6E3ACDDE4B4F8A6046C
:10111000B4F8A814D0E494F8A424002A40F0FC8089
:10112000B4F8A814B4F8AA244FF6E750814240F26C
:10113000CD80824240F2CE80052B3FF458AF4FF075
:10114000050E4FF0000C0F4F134D0FCF0FC597E852
:101150000300D4F8B43485E803005A1006EB6300AA
:10116000DB0745BFB258D4F8B034D4F8B034D35804
:1011700084F8A5E484F81CC598470948FEF7C6FF23
:1011800035E700BF08BE00085C02002050020020C6
:10119000F0BD00085202002000070020F6060020E3
:1011A000F40600202278002A40F0C980A188E28855
:1011B0004FF6E750814240F2B480824240F2C28052
:1011C000052B3FF451AF4FF005084FF0000EDFF84C
:1011D000B8C16B4FBCE80F000FC79CE80300236940
:1011E00087E803005A10D90704EB630045BFA258F3
:1011F000E368E368D35884F8018084F878E098477E
:101200006048FEF783FF2FE794F8A424002A40F0FB
:10121000B180B4F8A814B4F8AA244FF6E75081427C
:1012200040F29680824240F29780052B3FF4D6AD83
:101230004FF0050E4FF0000C534F544D0FCF0FC51C
:1012400097E80300D4F8B43485E803005A1006EB9D
:101250006300DB0745BFB258D4F8B034D4F8B034DB
:10126000D35884F8A5E484F81CC598474848FEF78D
:101270004DFFB3E52278002A4BD1A188E2884FF6D2
:10128000E750814234D9824236D9052B3FF467AE0C
:101290004FF0050C00273C4E394D0FCE0FC596E898
:1012A0000300236985E803005A1004EB6300DB07A1
:1012B00045BFA258E368E368D35884F801C084F8B6
:1012C000787098472F48FEF721FF48E64FF6F43034
:1012D000814204D94FF6F4318A423FF688AE042B9E
:1012E0003FF485AE4FF0040E4FF0000C294F2BE772
:1012F0004FF6F430814204D94FF6F4318A423FF67A
:101300002EAE042B3FF42BAE4FF0040C0027214EE1
:10131000C2E76188A288B2E7B4F8A614B4F8A8249A
:1013200002E74FF6F43081420CD8042B3FF49CAE18
:101330004FF004084FF0000EDFF858C049E761880D
:10134000A28835E74FF6F4318A423FF68DAEECE7DE
:101350004FF6F430814204D94FF6F4318A423FF619
:101360003DAD042B3FF43AAD4FF0040E4FF0000CAE
:10137000084F62E7B4F8A614B4F8A8244DE700BFFC
:101380005C0200205002002008BE00080007002078
:10139000F4060020F0BD00082DE9F04790F8603118
:1013A0001646012B82B040F2928040F2A44808FB1E
:1013B00001F8984C984B04EB080703EB42035B5C85
:1013C00097F878C0084480F861210D467B70BCF125
:1013D000000F49D0022B0CBF4FF0010E4FF0000E52
:1013E0008E4E03EB430306EBC30607F10C0C0FCE46
:1013F000ACE80F0096E8030087F878E08CE803007B
:1014000000F0978340F2A44303FB05431A69D60713
:101410004FEA620148BFDB6807EB62004ABF7A58B7
:10142000DB68D358984740F2A44303FB05F3E11867
:101430004878021F012A40F2D68008F10208E25CD7
:1014400004EB080140F2A44303FB0544236A5D104A
:1014500007EB6300DB0745BF7D59E369E369EB58A0
:1014600002B0BDE8F0471847022B40F0398208F17E
:101470006802A118C1F8E0C001F1180301F1980257
:10148000002043F8040B9342FAD101F1BC03002081
:1014900042F8040B9A42FAD101F1E002002143F82C
:1014A000041B9342FAD140F2A44E4FF001090EFB07
:1014B000054EDFF874C10EF10C06BCE80F000FC634
:1014C0009CE803008EF8789086E80300ABE7514C67
:1014D000514F80F8626117F8123094F8782080F844
:1014E00061616370002A40F0A580022B40F0818288
:1014F000C4F8482104F1800304F58071002243F808
:10150000042B8B42FAD103F12401002243F8042B6F
:101510008B42FAD103F12401002243F8042B8B42C1
:10152000FAD14FF0010EDFF800C1A3F59E75BCE8BB
:101530000F000FC59CE8030085E8030084F878E0FD
:101540002278236A07EB46065910DD0704EB630097
:1015500045BF6158E369E369CB58314998477378CF
:1015600094F81C2584F8A534002A40F00281022B4F
:1015700040F031822B4BC4F8EC2503F180010022AE
:1015800043F8042B8B42FAD103F12401002243F8E3
:10159000042B8B42FAD103F12401002243F8042BDF
:1015A0008B42FAD10127204EA3F59E750FCE0FC5B1
:1015B00096E8030085E8030084F81C7594F8A424D9
:1015C0001A4DD4F8C4345910DF0705EB630045BF4A
:1015D0006958D4F8C034D4F8C034CB58144902B098
:1015E000BDE8F0471847E25C002A00F097814FF60B
:1015F000E7534E8889889E4240F29781994240F293
:101600008A82052840F09B8208F1020804EB080159
:1016100018E700BF50020020C081000890BD0008FC
:101620005202002074070020C0BD0008F40600200C
:10163000F606002004F10C08C446022B0CBF4FF044
:10164000010E4FF0000EAE4D03EB430305EBC30557
:101650000FCDACE80F0095E8030084F878E08CE843
:1016600003003FF46DAF23695A10D90704EB630000
:1016700045BFA258E368E368D358984763781A1FB8
:10168000012A22783FF65DAF002A40F04F82A18800
:10169000E5884FF6E750814240F20082854240F2F1
:1016A0000182052B3FF44DAF052345464FF0000E58
:1016B000DFF860C26370BCE80F000FC59CE8030050
:1016C000236985E803005A1004EB6300DB0745BF7C
:1016D000A258E368E368D35884F878E098476378C1
:1016E0001A1F012A227800F20682002A40F0AD84F7
:1016F000A188E5884FF6E750814240F29F848542F9
:1017000000F258834FF6F4318D4200F2F481042B3D
:1017100000F0F181454604234FF0000EDFF8F8C1D8
:101720006370BCE80F000FC59CE80300236985E8DF
:1017300003005A10D90704EB630045BFA258E368C1
:10174000E368D35884F878E0984763781A1F012A31
:1017500040F2A084236A5A10D90704EB630045BF06
:10176000A258E369E369D3586649227898472278FA
:10177000C1E1654F022B3E460CBF4FF0010C4FF00C
:10178000000C5F4D03EB430305EBC3050FCD0FC604
:1017900095E8030084F81CC586E803003FF40EAF0B
:1017A000D4F8B434594D5A10D90705EB630045BF3E
:1017B000AA58D4F8B034D4F8B034D358984794F831
:1017C000A5341A1F012A94F8A4243FF6FAAE002A81
:1017D00040F0A781B4F8A814B4F8AA644FF6E75013
:1017E000814240F21681864240F21781052B3FF478
:1017F000E8AE05233E464FF0000EDFF818C184F82E
:10180000A534BCE80F000FC69CE80300D4F8B4343C
:1018100086E803005A1005EB6300DB0745BFAA58B2
:10182000D4F8B034D4F8B034D35884F81CE59847D1
:1018300094F8A5341A1F012A94F8A42400F21C81FC
:10184000002A40F00D84B4F8A814B4F8AA644FF646
:10185000E750814240F2FD83864200F296824FF6C5
:10186000F4318E4200F20881042B00F005813E46DF
:1018700004234FF0000EDFF8A0C084F8A534BCE8C4
:101880000F000FC69CE80300D4F8B43486E80300C8
:101890005A10D90705EB630045BFAA58D4F8B034F5
:1018A000D4F8B034D35884F81CE5984794F8A5349C
:1018B0001A1F012A40F2DA83D4F8C4345A10D90727
:1018C00005EB630045BFAA58D4F8C034D4F8C0343F
:1018D000D3580F4994F8A424984794F8A424CBE053
:1018E000074E03EB430306EBC30607F10C0C0FCEC8
:1018F000ACE80F0096E803008CE8030082E500BF27
:1019000090BD00085202002000070020F4060020CD
:10191000F606002008BE0008F0BD00084FF6E753A9
:101920008E88C9889E423FF669AE4FF6F4339E42D8
:1019300000F2F18004283FF467AE40F2A44E4FF06D
:10194000040A4FF000090EFB054EDFF818C30EF134
:101950000C06BCE80F000FC69CE8030086E80300F5
:10196000DEF810308EF801A0D9074FEA630207EBCA
:10197000630045BFBA58DEF80C30DEF80C30D3589F
:101980008EF87890984740F2A44303FB05F3E118E2
:101990004878021F012A40F2698108F10208E25CDE
:1019A00004EB080140F2A44303FB05431E6A4FEA1F
:1019B000660C07EB6600F60745BF57F80C60DB695D
:1019C000DB69F3580191984740F2A44303FB05F308
:1019D0000199E25C36E59F4F9F4D3E4603EB430382
:1019E00005EBC3050FCD0FC695E8030086E803009D
:1019F000D6E604F10C08C446974D03EB430305EB10
:101A0000C3050FCDACE80F0095E803008CE8030098
:101A100029E64FF6F430814204D94FF6F4318E4274
:101A20003FF6CFAD042B3FF4CCAD04233E464FF040
:101A3000000EDFF830C284F8A534BCE80F000FC6F2
:101A40009CE80300D4F8B43486E803005A10DE079B
:101A500005EB630045BFAA58D4F8B034D4F8B034CD
:101A6000D35884F81CE5984794F8A5341A1F012A26
:101A700094F8A42440F27A81D4F8C434591005EBC8
:101A80006300DB0745BF6958D4F8C034D4F8C034CC
:101A9000CB587249984794F8A42492E54FF6F43055
:101AA000814204D94FF6F4318D423FF64AAD042B02
:101AB0003FF447AD042345464FF0000EDFF8A4C1C4
:101AC0006370BCE80F000FC59CE80300236985E83C
:101AD00003005A10DD0704EB630045BFA258E3681A
:101AE000E368D35884F878E0984763781A1F012A8E
:101AF000227840F25481236A594D591004EB630057
:101B0000DB0745BF6158E369E369CB58294698472D
:101B100015F8022C15E54FF6F43399427FF60AAF1B
:101B200072E5B4F8A614B4F8A86457E66188A588ED
:101B3000AFE508F1020114F80820214482E440F2E4
:101B4000A44E4FF0050A4FF000090EFB054EDFF8DA
:101B500018C10EF10C06BCE80F000FC69CE803008C
:101B600086E80300DEF810308EF801A0D9074FEAAE
:101B7000630207EB630045BFBA58DEF80C30DEF8AD
:101B80000C30D3588EF87890984740F2A44303FB6A
:101B900005F3E1184878021F012A3FF6FEAEE25C29
:101BA000002A40F043828B88CE884FF6E7518B4263
:101BB00040F22A828E4240F23C82052800F0D28018
:101BC00040F2A4464FF0050A4FF0000906FB054617
:101BD000DFF894E006F10C0CBEE80F00ACE80F0053
:101BE0009EE803008CE80300336986F801A05A10D0
:101BF00007EB6300DB0745BFBA58F368F368D358B7
:101C000086F87890984740F2A44202FB05F2A318A8
:101C10005978081F012840F24E8240F2A44340F256
:101C2000A44603FB05431A6A06FB05F6511007EBB1
:101C30006200D20744BF7A58DB6908F102012144EF
:101C40004CBFD358DB69A25D01919847A25D019911
:101C5000A8E600BF0007002090BD0008F60600209F
:101C600052020020F0BD000808BE0008E25C002A15
:101C700040F0F3808E88C9884FF6E7539E4240F2C9
:101C8000A38099426AD905286CD040F2A44E4FF047
:101C9000050A4FF000090EFB054EDFF800C50EF1F6
:101CA0000C06BCE80F000FC69CE8030086E80300A2
:101CB000DEF810308EF801A05A1007EB6300DB0746
:101CC00045BFBA58DEF80C30DEF80C30D3588EF829
:101CD0007890984740F2A44303FB05F3E21851784B
:101CE000081F012899D8E35C002B40F00D829088F2
:101CF000D3884FF6E752904240F20082934200F2BE
:101D0000E6814FF6F432934287D8042985D040F219
:101D1000A4464FF0040A4FF0000906FB0546DFF821
:101D200070E406F10C0CBEE80F00ACE80F009EE872
:101D300003008CE80300336986F801A05A10D90724
:101D400007EB630045BFBA58F368F368D35886F8C9
:101D5000789098473846FEF7D9F95EE74FF6F433A6
:101D6000994235D908F1020121441BE6002A40F0CE
:101D70003A81B4F8A814B4F8AA644FF6E750814247
:101D800040F2CC80864240F23981052B3FF474AE9C
:101D90003E4605234FF0000EDFF800C46DE5002A33
:101DA0005ED1A188E5884FF6E75081425BD9854234
:101DB00040F21E81052B3FF49EAE454605234FF0B1
:101DC000000EDFF8D8C3ABE44FF6F4339E42C5D81B
:101DD0000428C7D040F2A44E4FF0040A4FF0000987
:101DE0000EFB054EDFF8A8C30EF10C06BCE80F0091
:101DF0000FC69CE8030086E80300DEF810308EF87A
:101E000001A05A10DE0707EB630045BFBA58DEF8A1
:101E10000C30DEF80C30D3588EF87890984740F2AA
:101E2000A44303FB05F3E2185178081F01283FF68D
:101E3000F4AEE35C002B40F05E819088D2884FF6D0
:101E4000E753984240F251819A4200F240814FF6A6
:101E5000F4339A423FF6E1AE57E74E8889880BE7A4
:101E60006188A5889FE74FF6F430814200F2C08078
:101E7000042B3FF440AE042345464FF0000EDFF83C
:101E800010C36370BCE80F000FC59CE80300236912
:101E900085E803005A1004EB6300DB0745BFA25836
:101EA000E368E368D35884F878E0984763781A1FAA
:101EB000012A3FF64FAC2278002A40F04281A288E6
:101EC000E0884FF6E7518A4240F23581884200F2BD
:101ED0003B814FF6F43290423FF63CAC042B3FF48A
:101EE00039AC04234FF0000CA94D63700FCDA8E866
:101EF0000F0095E80300236988E803005A10DD0706
:101F000004EB630045BFA258E368E368D35884F844
:101F100078C098479F48FEF7F9F81BE44FF6F43075
:101F200081426BD8042B3FF4A7AD04233E464FF00B
:101F3000000EDFF85CC284F8A534BCE80F000FC6C1
:101F40009CE80300D4F8B43486E803005A1005EB8B
:101F50006300DB0745BFAA58D4F8B034D4F8B034D6
:101F6000D35884F81CE5984794F8A5341A1F012A21
:101F70003FF6A2AC94F8A424002A40F0FB80B4F809
:101F8000A824B4F8AA044FF6E7518A4240F2EC8044
:101F9000884200F2E1804FF6F43290423FF68CAC7A
:101FA000042B3FF489AC04234FF0000C784E84F8E6
:101FB000A5340FCE0FC796E80300D4F8B43487E8F1
:101FC00003005A10DE0705EB630045BFAA58D4F89A
:101FD000B034D4F8B034D35884F81CC598476E4850
:101FE000FEF794F868E4B4F8A614B4F8A864C4E65C
:101FF0004FF6F4318D423FF67EAD39E74FF6F431BE
:102000008E423FF639AD8DE74FF6F4318B4210D852
:1020100004283FF4A7AE40F2A44E4FF0040A4FF05C
:1020200000090EFB054EDFF868C138E64B888E8844
:10203000BBE54FF6F4339E42EAD993E64FF6F4300F
:1020400081427FF664ABFFF75DBB6188A588FFF72F
:1020500051BB4FF6F43081427FF606ACFFF7FFBB71
:10206000B4F8A614B4F8A864FFF7F1BB94F8A4245C
:10207000002A52D1B4F8A814B4F8AA244FF6E750B5
:10208000814244D9824267D84FF6F4318A423FF602
:1020900013AC85E72278002A4AD1A188E2884FF65E
:1020A000E75081423ED982424ED84FF6F4318A42FF
:1020B0003FF650AB12E7A25C002A60D19A88DB8819
:1020C0004FF6E75082425DD983427FF61AAE05296A
:1020D0003FF4A3AD40F2A4464FF0050A4FF00009CB
:1020E00006FB0546DFF8B4E01BE64FF6F4339842F2
:1020F0007FF60BAEABE650889288A0E64FF6F4323E
:1021000090427FF602AEFCE550889388F1E54FF6E9
:10211000F43081427FF644AFB6E7B4F8A614B4F8C1
:10212000A824ABE74FF6F43081427FF6D7AEBCE788
:102130006188A288B3E74FF6F4318A427FF6CEAECB
:10214000C7E66288A088BCE6052B3FF403AB0523F5
:102150004FF0000C114DC8E6052B3FF4ADAB052345
:102160004FF0000C0D4E22E74FF6F4318A427FF615
:1021700017AF10E7B4F8A624B4F8A80403E75A8808
:102180009B889DE74FF6F43082427FF6BEADB8E5FE
:10219000F0BD000850020020F406002008BE000830
:1021A0002DE9F84F0546C0F8881100F5A87003F036
:1021B00009FB05F5AA7003F08BFB05F5AC7003F085
:1021C000DFFB0023AF49C5E904330A68C5E90633DC
:1021D00001320A60C5E908334FF48041C5E90A338A
:1021E000A9486B60AB60EB602B6085F8813185F8A6
:1021F000823185F8833185F8843185F8763105F0B0
:102200001BFFB0FA80F040F2FF3C40099F4C85F87C
:102210008C0105F2631605F26F1E2346374607CB85
:10222000002330607160B26017F8012B13447745CA
:102230009BB2F9D1A2899A422AD0954B103C9C427C
:102240000CF1FF3CE9D10023A5F87031A5F860310D
:1022500085F8623185F86E314FF400518A4805F0F7
:10226000EBFE002800F09C812846FEF773F9002160
:10227000284695F86121FFF78FF80121284695F847
:102280006221FFF789F8002385F87731BDE8F88FE0
:10229000E3896345D1D1082295F8641195F863412B
:1022A00095F865310CF1010C85F86111A5F870C144
:1022B00085F8604185F8623105F5B371002A40F078
:1022C0000982023C012CC7D84FF480720023714F61
:1022D000C5E90822C5E90A2285F8813185F88231ED
:1022E00085F8833185F88431BC1E07F2A24805F5D4
:1022F000BC7605F5BE79617816F8013B0A1F1B0212
:10230000012A27F8023B227840F2CE80236A591036
:1023100004EB6300DB0745BF6158E369E369CB5811
:102320005C49984794F8A514F3780A1F1B02012A08
:10233000A7F8A23494F8A42412D9D4F8C4345910BC
:1023400008EB6300DB0745BF58F80110D4F8C03430
:10235000D4F8C034CB58504998474E45CBD17BE791
:10236000002A00F06A814FF6E753B4F8A604B4F8E7
:10237000A8C4984240F26A819C4540F2BA8105297E
:10238000DBD04FF0050B4FF0000ADFF810E1DFF86B
:1023900010C1BEE80F00ACE80F009EE80300D4F8BF
:1023A000B4348CE803005A1008EB6300DB0745BF28
:1023B00058F80220D4F8B034D4F8B034D35884F8A4
:1023C000A5B484F81CA5984794F8A5341A1F012ACF
:1023D00094F8A42400F26B81002A40F06382B4F8E0
:1023E000A804B4F8AA144FF6E75C604540F24882AE
:1023F000614500F292814FF6F430814200F257813C
:10240000042B00F054814FF0040B4FF0000ADFF86A
:1024100094E0DFF88CC0BEE80F00ACE80F009EE847
:102420000300D4F8B4348CE803005A1008EB6300BE
:10243000DB0745BF58F80220D4F8B034D4F8B034E4
:10244000D35884F8A5B484F81CA5984794F8A5340B
:102450001A1F012A40F23482D4F8C4340E495A10AB
:1024600008EB6300DB0745BF58F80220D4F8C034FE
:10247000D4F8C034D35894F8A424984794F8A424EA
:1024800015E100BF840D002000100140F0FF01089D
:10249000F0BF010852020020F606002008BE000826
:1024A00000070020F0BD0008002A00F083804FF6EE
:1024B000E7536088B4F804C0984240F283809C459A
:1024C00040F2118105293FF421AF4FF0050B4FF089
:1024D000000ADFF8C0E3DFF8C0C3BEE80F00ACE8D5
:1024E0000F009EE8030023698CE803005A1004EBF8
:1024F0006300DB0745BFA258E368E368D35884F85C
:1025000001B084F878A0984763781A1F012A2278CE
:1025100000F28580002A40F0D081A088E1884FF643
:10252000E75C604540F2C381614500F20B814FF6E4
:10253000F430814273D8042B71D04FF0040B4FF06C
:10254000000ADFF858E3DFF850C3BEE80F00ACE83C
:102550000F009EE8030023698CE803005A1004EB87
:102560006300DB0745BFA258E368E368D35884F8EB
:1025700001B084F878A0984763781A1F012A40F2C6
:102580001582236AC1495A1004EB6300DB0745BF7B
:10259000A258E369E369D3582278984722783EE04D
:1025A00095F86E31284683F0010385F86E31FDF70A
:1025B00005FE59E64FF6E753A088B4F806C09842E6
:1025C0003FF67DAF4FF6F433984200F28C80042939
:1025D0003FF49CAE4FF0040B4FF0000ADFF8BCE272
:1025E000DFF8B4C2BEE80F00ACE80F009EE80300BD
:1025F00023698CE803005A10D90704EB630045BF38
:10260000A258E368E368D35884F801B084F878A04E
:10261000984763781A1F012A227840F28780236A3C
:10262000591004EB6300DB0745BF6158E369E369B8
:10263000CB5896499847227868E64FF6E753B4F8A6
:10264000A804B4F8AAC498423FF696AE4FF6F43305
:1026500098424ED804293FF470AE4FF0040B4FF06F
:10266000000ADFF838E2DFF838C2BEE80F00ACE855
:102670000F009EE80300D4F8B4348CE803005A102D
:10268000D90708EB630045BF58F80220D4F8B034EE
:10269000D4F8B034D35884F8A5B484F81CA598476E
:1026A00094F8A5341A1F012A94F8A42427D9D4F841
:1026B000C434591008EB6300DB0745BF58F801101C
:1026C000D4F8C034D4F8C034CB587149984794F842
:1026D000A42432E605F5BC70023C05F00BFD012C8C
:1026E0003FF6BAADF0E54FF6F4339C453FF60EAE3B
:1026F0006DE74FF6F4339C453FF61FAEAAE7002A7C
:1027000040F0AD80B4F8A814B4F8AAC44FF6E7506E
:10271000814260D9844540F2A780052BC7D04FF095
:10272000050B4FF0000ADFF86CE172E6002A4ED18B
:10273000A188B4F806C04FF6E75081420CD9844511
:1027400040F29880052B3FF46AAF4FF0050B4FF035
:10275000000ADFF840E1F6E64FF6F430814200F27D
:102760008980042B3FF45BAF4FF0040B4FF0000A5D
:10277000DFF828E1DFF820C1BEE80F00ACE80F0069
:102780009EE8030023698CE803005A10D90704EB84
:10279000630045BFA258E368E368D35884F801B0EA
:1027A00084F878A0984763781A1F012A227840F2AB
:1027B0002F81236A591004EB6300DB0745BF615882
:1027C000E369E369CB5831499847227827E7618864
:1027D000B4F804C0AFE74FF6F430814244D8042B7C
:1027E0003FF465AF4FF0040B4FF0000ADFF8ACE0A8
:1027F000DFF8ACC0BEE80F00ACE80F009EE80300B5
:10280000D4F8B4348CE803005A10D90708EB6300FD
:1028100045BF58F80220D4F8B034D4F8B034D358B7
:1028200084F8A5B484F81CA5984794F8A5341A1F19
:10283000012A94F8A4247ED9D4F8C434591008EBA2
:102840006300DB0745BF58F80110D4F8C034D4F852
:10285000C034CB580E49984794F8A42427E7B4F81D
:10286000A614B4F8A8C451E74FF6F4318C453FF6EE
:102870001EAFB4E74FF6F4318C453FF6D0AE70E7AB
:102880004FF6F43C60457FF6BBADB4E55202002044
:10289000F606002008BE00085C020020F0BD00081B
:1028A00000070020B4F8A604B4F8A8149BE54FF67E
:1028B000F43C60457FF63FAE39E66088A1882EE69D
:1028C00094F8A424002A40F0F580B4F8A814B4F8D1
:1028D000AA244FF6E750814240F2CC80824240F277
:1028E000EE80052B3FF4B8AD4FF0050B4FF0000A1A
:1028F000DFF814E3DFF814C3BEE80F00ACE80F0004
:102900009EE80300D4F8B4348CE803005A10D907C9
:1029100008EB630045BF58F80220D4F8B034D4F86F
:10292000B034D35884F8A5B484F81CA59847B248AD
:10293000FDF7ECFB90E5002A40F04C81B4F8A804C8
:10294000B4F8AA144FF6E75C604540F2FF80614599
:1029500040F24581052B3FF46FAF4FF0050B4FF070
:10296000000ADFF8A4E2DFF8A4C2BEE80F00ACE87A
:102970000F009EE80300D4F8B4348CE803005A102A
:1029800008EB6300DB0745BF58F80220D4F8B034E9
:10299000D4F8B034D35884F8A5B484F81CA598476B
:1029A0009548FDF7B3FB94F8A42445E72278002A64
:1029B0007DD1A188E2884FF6E750814268D98242F2
:1029C00040F21381052B3FF4DCAD4FF0050B4FF0C7
:1029D000000ADFF834E2DFF838C2BEE80F00ACE8E6
:1029E0000F009EE8030023698CE803005A10D90702
:1029F00004EB630045BFA258E368E368D35884F84A
:102A000001B084F878A098477C48FDF77FFBB8E5D3
:102A1000002A40F09880A088E1884FF6E75C604586
:102A200053D9614555D9052B3FF4C3AE4FF0050B83
:102A30004FF0000ADFF8D0E1DFF8D4C1BEE80F00A4
:102A4000ACE80F009EE8030023698CE803005A10ED
:102A500004EB6300DB0745BFA258E368E368D35883
:102A600084F801B084F878A098476448FDF74EFBDD
:102A700022789EE64FF6F430814220D8042B3FF4B2
:102A8000EBAC4FF0040B4FF0000ADFF888E131E7C0
:102A90004FF6F430814200F2A880042B3FF471AD70
:102AA0004FF0040B4FF0000ADFF868E193E761880C
:102AB000A28880E7B4F8A614B4F8A82409E74FF672
:102AC000F4318A423FF6C8ACD8E74FF6F43C604593
:102AD00004D94FF6F43081423FF66BAE042B3FF43D
:102AE00068AE4FF0040B4FF0000ADFF828E1DFF882
:102AF00020C1BEE80F00ACE80F009EE80300236988
:102B00008CE803005A10D90704EB630045BFA258B4
:102B1000E368E368D35884F801B084F878A0984754
:102B200063781A1F012A77D9236A5A10D90704EB50
:102B3000630045BFA258E369E369D358304922785E
:102B40009847227835E66088A18866E74FF6F43C1E
:102B5000604544D8042B3FF46FAE4FF0040B4FF0A8
:102B6000000ADFF8B0E0DFF8A4C0BEE80F00ACE870
:102B70000F009EE80300D4F8B4348CE803005A1028
:102B8000D90708EB630045BF58F80220D4F8B034E9
:102B9000D4F8B034D35884F8A5B484F81CA5984769
:102BA00094F8A5341A1F012A68D9D4F8C4345A10ED
:102BB000D90708EB630045BF58F80220D4F8C034A9
:102BC000D4F8C034D3580F4994F8A424984794F803
:102BD000A42431E6B4F8A604B4F8A814B2E64FF67B
:102BE000F43081423FF628AEB4E74FF6F4318A4222
:102BF0003FF6C7AC51E700BFF406002050020020AA
:102C000052020020F606002008BE0008000700203F
:102C10005C020020F0BD00082278002A40F090807D
:102C2000A188E2884FF6E75081425ED9824260D99E
:102C3000052B3FF479AF4FF0050B4FF0000ADFF89A
:102C400010E1DFF810C1BEE80F00ACE80F009EE80D
:102C5000030023698CE803005A1004EB6300DB07D0
:102C600045BFA258E368E368D35884F801B084F8FC
:102C700078A098473448FDF749FA55E794F8A4241A
:102C8000002A58D1B4F8A814B4F8AA244FF6E75093
:102C900081423DD982423FD9052B86D04FF0050BAA
:102CA0004FF0000ADFF8A8E0DFF8ACC0BEE80F0084
:102CB000ACE80F009EE80300D4F8B4348CE80300BD
:102CC0005A1008EB6300DB0745BF58F80220D4F820
:102CD000B034D4F8B034D35884F8A5B484F81CA523
:102CE00098471A48FDF712FA5FE74FF6F430814231
:102CF00004D94FF6F4318A423FF616AF042B3FF465
:102D000013AF4FF0040B4FF0000ADFF850E098E7E4
:102D10004FF6F430814204D94FF6F4318A423FF63F
:102D200044AF042B3FF441AF4FF0040B4FF0000AC7
:102D3000DFF828E0B8E7B4F8A614B4F8A824A5E7AB
:102D40006188A2886EE700BF50020020F4060020D0
:102D500008BE00085C02002000070020F0BD00084B
:102D600090F88C312DE9F04104465BB94B88032B78
:102D700006D8DFE803F02F55022A002380F8403000
:102D8000BDE8F0814D88002DFAD1D0F8880102F01D
:102D900099FC2046A4F8605184F8625184F86E5181
:102DA000FDF70CFA2046FDF7D5FB2946204694F89E
:102DB0006121FEF7F1FA0121204694F86221FEF725
:102DC000EBFA84F88C51BDE8F081002380F84130A3
:102DD000BDE8F0814B68B3F5167F90F8603140DCB8
:102DE000012B40F2DF804FF48071002203F00103D9
:102DF000C0E90811C0E90A11C3F1030380F860318A
:102E000080F8812180F8822180F8832180F8842154
:102E10002046FDF79FFB2046BDE8F041FDF7CEB907
:102E200090F860314968032B0CBF90F8622190F84C
:102E30006121B1F5167F0CDD043202F00702991E04
:102E40002046C9B2FEF7A8FA2046BDE8F041FDF7DA
:102E5000B5B9032A02F1010202F0030288BF04326D
:102E6000EDE790F86211C34DC34F023303F0030343
:102E700017F8112080F8603195F8783080F86111EA
:102E80006A70002B40F09380022A40F09681C5F8CA
:102E9000483105F5807105F18003002243F8042BC9
:102EA0008B42FAD103F12401002243F8042B8B4218
:102EB000FAD103F12401002243F8042B8B42FAD10A
:102EC0004FF0010EDFF8BCC2A3F59E76BCE80F0000
:102ED0000FC69CE8030086E8030085F878E02A78AE
:102EE0002B6A5910DE0705EB630045BF6958EB6993
:102EF000EB69CB58A149984794F8613195F81C25A6
:102F000007EB43077B7885F8A534002A40F0B780AB
:102F1000022B40F043819A4BC5F8EC2503F1800168
:102F2000002243F8042B8B42FAD103F12401002242
:102F300043F8042B8B42FAD103F12401002243F819
:102F4000042B8B42FAD14FF0010C8E4FA3F59E76E5
:102F50000FCF0FC697E8030086E8030085F81CC56D
:102F600095F8A424884ED5F8C434591006EB6300B4
:102F7000DB0745BF7158D5F8C034D5F8C034CB58FD
:102F80008249984700234FF4807284F88131C4E964
:102F90000822C4E90A2284F8823184F8833184F853
:102FA000843135E7C3F1010380F8603130E705F182
:102FB0000C08C446022A0CBF4FF0010E4FF0000E61
:102FC000734E02EB420206EBC2060FCEACE80F00D6
:102FD00096E8030085F878E08CE803003FF47FAFC3
:102FE0002B695A10D90705EB630045BFAA58EB6857
:102FF000EB68D35898476B781A1F012A2A783FF656
:103000006FAF002A40F0A381A888EE884FF6E75101
:10301000884240F24A818E4240F29C81052B3FF467
:103020005FAF052346464FF0000EDFF86CC16B70B2
:10303000BCE80F000FC69CE803002B6986E803007C
:103040005A1005EB6300DB0745BFAA58EB68EB6835
:10305000D35885F878E098476B781A1F012A40F218
:10306000A6812B6A45495A1005EB6300DB0745BF73
:10307000AA58EB69EB69D3582A7898472FE7454F50
:10308000022BBC460CBF4FF0010E4FF0000E404E1D
:1030900003EB430306EBC3060FCEACE80F0096E844
:1030A000030085F81CE58CE803003FF459AFD5F820
:1030B000B434354E5A1006EB6300DB0745BFB258F7
:1030C000D5F8B034D5F8B034D358984795F8A5342E
:1030D0001A1F012A95F8A4243FF645AF002A40F0B4
:1030E000DF80B5F8A804B5F8AAC44FF6E7518842C6
:1030F00073D98C4540F23481052B3FF434AF05235E
:10310000BC464FF00008DFF890E085F8A534BEE833
:103110000F00ACE80F009EE80300D5F8B4348CE84B
:1031200003005A10D90706EB630045BFB258D5F823
:10313000B034D5F8B034D35885F81C85984795F845
:10314000A5341A1F012A40F24281D5F8C4345A101E
:10315000D90706EB630045BFB258D5F8C034D5F89F
:10316000C034D358094995F8A424984795F8A42465
:10317000F9E600BF50020020C08100085202002082
:1031800074070020C0BD0008F4060020F6060020E9
:1031900090BD00080007002008BE0008A54FA64EFD
:1031A000BC4603EB430306EBC3060FCEACE80F00AF
:1031B00096E803008CE8030079E705F10C08C446A3
:1031C0009D4E02EB420206EBC2060FCEACE80F00AA
:1031D00096E803008CE8030002E74FF6F4318842DA
:1031E00000F2BE80042B3FF4BEAE0423BC464FF079
:1031F0000008DFF854E285F8A534BEE80F00ACE81B
:103200000F009EE80300D5F8B4348CE803005A1090
:1032100006EB6300DB0745BFB258D5F8B034D5F8EC
:10322000B034D35885F81C85984795F8A5341A1FF3
:10323000012A8AD895F8A424002A40F0A480B5F881
:10324000A824B5F8AA044FF6E7518A4240F28E80CE
:10325000884240F2D080052B3FF477AF05234FF032
:10326000000EDFF8DCC185F8A534BCE80F000FC7FD
:103270009CE80300D5F8B43487E803005A10DF0750
:1032800006EB630045BFB258D5F8B034D5F8B0347A
:10329000D35885F81CE598476848FCF737FF54E792
:1032A000B5F8A604B5F8A8C41FE74FF6F431884274
:1032B00050D8042B3FF414AE042346464FF0000EC2
:1032C000DFF884C16B70BCE80F000FC69CE80300F8
:1032D0002B6986E803005A10DE0705EB630045BF43
:1032E000AA58EB68EB68D35885F878E098476B7874
:1032F0001A1F012A3FF6B5AE2A78002A54D1AA88AF
:10330000E8884FF6E7518A4242D9884279D9052B9D
:103310003FF4A7AE05234FF0000C494E6B700FCE63
:10332000A8E80F0096E803002B6988E803005A100C
:10333000D90705EB630045BFAA58EB68EB68D35883
:1033400085F878C098473F48FCF7E0FE89E6688832
:10335000AE885BE64FF6F4318E423FF6C1ADA8E78A
:103360004FF6F4318C453FF6FEAD3BE74FF6F431B6
:103370008A4240D8042B3FF4E8AE04234FF0000EFD
:10338000DFF8C4C06FE7B5F8A624B5F8A8045AE77B
:103390004FF6F4318A4234D8042B3FF462AE042352
:1033A0004FF0000C284EB9E76A88A888A9E72A7868
:1033B00092BBA988EA884FF6E750814227D982421A
:1033C000A5D84FF6F4318A423FF64BAEE4E795F8C4
:1033D000A4244ABBB5F8A814B5F8AA244FF6E750C0
:1033E00081421CD982423FF636AF4FF6F4318A4211
:1033F0003FF6ABAEBEE74FF6F43290423FF6A5AED5
:10340000B8E74FF6F43290423FF62BAEC4E74FF6E2
:10341000F4308142C0D9D4E76988AA88CBE74FF657
:10342000F4308142A6D9E0E7B5F8A614B5F8A8248F
:10343000D4E700BF0007002090BD0008F40600207C
:1034400008BE000850020020F0BD00082DE9F04F32
:1034500090F88C3104460D4683B0002B40F0AD80CF
:1034600090F86071012F00F0C9803ED8A14E8B7892
:10347000717868680A1F06EB4303012A5880327886
:1034800040F24481336A5910DF0706EB630045BF01
:103490007158F369F369CB589749984796F8A51482
:1034A000AB780A1F686806EB4303012AA3F8A60459
:1034B00096F8A42440F2CF80904FD6F8C434591027
:1034C00007EB6300DB0745BF7958D6F8C034D6F860
:1034D000C034CB588A49984768886B6804441B12EB
:1034E00084F8783103B0BDE8F08F023F5FFA87F8C7
:1034F000B8F1010FF6D840F2A4494B884A68D8B217
:1035000000EB88085FFA88F8A04498F878E1C2F3E5
:103510000F2CAEEB0C0109B209FB07F90029B8BF6B
:10352000ACEB0E01734E94F86EC106EB090AB8BFFE
:1035300009B2BCF1000F05D0234493F881310BB9D7
:103540000229CFDC40F2A44140F2522301FB07F1F3
:1035500003FB0703701890F801C006EB4303ACF1BE
:10356000040EBEF1010F5A8040F2118109F10201EF
:10357000314440F2A44303FB07631A6A0AEB62007A
:103580004FEA620CD20745BF5AF80C20DB69D3F82A
:103590001C9052F8039040F2A44303FB07F7F25D3E
:1035A000C84701226B681B1288F878316888044488
:1035B00084F8812103B0BDE8F08F4B884A6803444A
:1035C000121283F8782190F8783190F87921803BB5
:1035D000803ADB00D0F8881103EB62035B420B807A
:1035E00090F87A3190F87B21803B803ADB0003EB46
:1035F00062035B424B8003B0BDE8F08F4B883D4EC9
:10360000012B11D9023B6A6896F8A514DBB206EBD0
:103610004303A3F8A6240B1F012B96F8A42440F221
:10362000618106F2A44748E74A68717806EB4303D4
:103630005A800B1F012B327840F21381336A5910E4
:10364000DF0706EB630045BF7158F369F369CB5898
:103650002949984740E7002A00F0FB80B6F8A634D5
:10366000B6F8A8744FF6E750834240F2F4818742DF
:1036700040F2908205293FF41FAF4FF0000E4FF04B
:103680000508204FDFF880C00FCFACE80F0097E8A7
:103690000300D6F8B434ACF11C075A108CE80300D0
:1036A00007EB6300DB0745BFBA58D6F8B034D6F84D
:1036B000B034D35886F8A58486F81CE5984796F868
:1036C000A5341A1F012A40F2AE84D6F8C4340C493E
:1036D0005A1007EB6300DB0745BFBA58D6F8C03471
:1036E000D6F8C034D35896F8A424984796F8A42462
:1036F000E3E600BF5002002052020020F406002042
:10370000F606002008BE000800070020002A00F08E
:103710009D807388B7884FF6E750834240F26081FE
:10372000874240F2318205293FF4ACAE4FF0000EE3
:103730004FF00508DFF89CC2A44FBCE80F000FC78C
:103740009CE80300336987E803005A10DF0706EBA3
:10375000630045BFB258F368F368D35886F8018018
:1037600086F878E0984773781A1F012A40F2288477
:10377000336A97495A1006EB6300DB0745BFB2581E
:10378000F369F369D3583278984732787AE6735CF4
:10379000002B63D0428881884FF6E7539A4240F26B
:1037A0009E81994240F2FC81BCF1050F3FF4DEAEF0
:1037B00040F2A44B0BFB076BDFF818E20BF10C0C8B
:1037C000BEE80F00ACE80F009EE803004FF00502D2
:1037D0008BF801204FF000028CE80300DBF810307A
:1037E0008BF878200AEB63005A10DB0745BF5AF8C4
:1037F0000220DBF80C30DBF80C30D358984740F24D
:10380000A44303FB07F3F2185178081F012840F284
:10381000868440F2A44303FB07631A6A51100AEB43
:103820006200D20744BF5AF80120DB6909F10201A6
:1038300048BFD35840F2A44202FB07F23144019141
:1038400058BFDB69B25C9847019992E6B388F78864
:1038500061E7B6F8A834B6F8AA7403E78288C1888D
:103860009AE7002A40F07F82B088F7884FF6E75346
:10387000984240F21D829F4240F2788205293FF42F
:10388000DDAE4FF0000E4FF00508DFF848C14F4F96
:10389000BCE80F000FC79CE80300336987E803000A
:1038A0005A1006EB6300DB0745BFB258F368F368B4
:1038B000D35886F8018086F878E0984773781A1F05
:1038C000012A40F2A984336A41495A1006EB630089
:1038D000DB0745BFB258F369F369D358327898478C
:1038E0003278ABE6002A40F0CB81B6F8A804B6F8EF
:1038F000AA744FF6E753984240F257819F4240F234
:10390000C48105293FF4D8AD4FF0000E4FF00508F3
:10391000304FDFF8C8C00FCFACE80F0097E80300C6
:10392000D6F8B434ACF11C075A108CE8030007EB4E
:103930006300DB0745BFBA58D6F8B034D6F8B034C8
:10394000D35886F8A58486F81CE5984796F8A534E0
:103950001A1F012A3FF6B9AE96F8A424002A40F0B7
:10396000D484B6F8A824B6F8AA044FF6E7518A42E0
:1039700040F2D784884240F26783052B3FF4A5AE1E
:103980004FF005094FF00008DFF848E0DFF84CC0C1
:10399000BEE80F00ACE80F009EE80300D6F8B43490
:1039A0008CE803005A10D90707EB630045BFBA58EB
:1039B000D6F8B034D6F8B034D35886F8A59486F843
:1039C0001C8598470448FCF7A1FB7EE65C020020BA
:1039D0005202002008BE0008F40600200007002064
:1039E0004FF6F430834200F2CF8004293FF44AAD11
:1039F0004FF0000E4FF00408DFF8A0C2A54FBCE85E
:103A00000F000FC79CE80300336987E803005A10D2
:103A1000DF0706EB630045BFB258F368F368D3587D
:103A200086F8018086F878E0984773781A1F012A93
:103A3000327840F2A181336A974F591006EB630048
:103A4000DB0745BF7158F369F369CB58394698478E
:103A500017F8022C16E54FF6F430834200F29A80F4
:103A600004293FF429AD4FF0000E4FF004088B4FAE
:103A7000DFF834C20FCFACE80F0097E80300D6F8A8
:103A8000B4348CE803005A10D907ACF11C0707EBDB
:103A9000630045BFBA58D6F8B034D6F8B034D3581E
:103AA00086F8A58486F81CE5984796F8A5341A1F71
:103AB000012A96F8A42440F29181D6F8C434591012
:103AC00007EB6300DB0745BF7958D6F8C034D6F85A
:103AD000C034CB587249984796F8A424EDE44FF6C9
:103AE000F4339A425CD8BCF1040F3FF43FAD40F28E
:103AF000A44B0BFB076BDFF8A4E10BF10C0CBEE849
:103B00000F00ACE80F009EE803004FF004028BF8B2
:103B100001204FF000028CE80300DBF810308BF836
:103B200078200AEB63005A10DB0745BF5AF80220E1
:103B3000DBF80C30DBF80C30D358984740F2A44344
:103B400003FB07F3F1184878021F012A40F299811C
:103B500009F10201F25C314440F2A44303FB076324
:103B6000D3F820C001911CF0010F4FEA6C0E18BF72
:103B7000DB690AEB6C0016BF5AF80EC0DB695CF813
:103B8000033098470199F4E44FF6F4339F423FF62F
:103B900079AC2AE74FF6F4339F427FF661AF8BE4AE
:103BA0004FF6F43399429ED9E0E44FF6F43398424D
:103BB0006BD804293FF480AC4FF0000E4FF004089E
:103BC000364FDFF8E4C00FCFACE80F0097E80300F2
:103BD000D6F8B4348CE803005A10D907ACF11C07AE
:103BE00007EB630045BFBA58D6F8B034D6F8B03406
:103BF000D35886F8A58486F81CE5984796F8A5342E
:103C00001A1F012A96F8A4243FF657AF002A40F065
:103C1000D082B6F8A814B6F8AAC44FF6E75081428D
:103C200040F2C182844540F2E880052B3FF445AF65
:103C30004FF005094FF00008DFF870E0DFF868C0CA
:103C4000BEE80F00ACE80F009EE80300D6F8B434DD
:103C50008CE803005A1007EB6300DB0745BFBA5836
:103C6000D6F8B034D6F8B034D35886F8A59486F890
:103C70001C8598470B48FCF749FA96F8A4241CE7E2
:103C8000B6F8A604B6F8A87433E64FF6F4339F42AC
:103C90008FD911E45C02002052020020F0BD000820
:103CA000F6060020F40600200007002008BE0008E9
:103CB0004FF6F433984259D804293FF4BFAC4FF083
:103CC000000E4FF00408DFF8ECC2B64FBCE80F005E
:103CD0000FC79CE80300336987E803005A10DF0729
:103CE00006EB630045BFB258F368F368D35886F813
:103CF000018086F878E0984773781A1F012A3FF60A
:103D0000E2AD3278002A40F08482B188F0884FF624
:103D1000E752914240F26F82904240F2F082052BCE
:103D20003FF4D1AD4FF005084FF0000EDFF888C228
:103D30009C4FBCE80F000FC79CE80300336987E87D
:103D400003005A10D90706EB630045BFB258F36869
:103D5000F368D35886F8018086F878E0984792484F
:103D6000FCF7D4F9AFE57088B7887FE54FF6F433F8
:103D70009F423FF663AC9FE7002A40F00F81B08876
:103D8000F7884FF6E751884240F2CF808F4240F2E9
:103D90000482052B3FF44FAE4FF0000E4FF00508A4
:103DA000DFF814C27F4FBCE80F000FC79CE8030088
:103DB000336987E803005A10D90706EB630045BF53
:103DC000B258F368F368D35886F878E086F8018033
:103DD00098477548FCF79AF932782CE6002A40F0AB
:103DE0009F80B6F8A804B6F8AAC44FF6E7518842F7
:103DF00040F290808C453FF618AF4FF6F4318C4579
:103E00003FF65BAE042B3FF458AE4FF004094FF081
:103E10000008DFF8A0E1DFF8A4C1BEE80F00ACE8BD
:103E20000F009EE80300D6F8B4348CE803005A1063
:103E3000D90707EB630045BFBA58D6F8B034D6F8B7
:103E4000B034D35886F8A59486F81C85984796F820
:103E5000A5341A1F012A40F21282D6F8C4345A102F
:103E6000D90707EB630045BFBA58D6F8C034D6F877
:103E7000C034D3584D4996F8A424984796F8A42402
:103E80001BE6F25C002A40F046818B88B1F806C040
:103E90004FF6E7518B4240F2E6808C4531D9052838
:103EA00034D040F2A44C0CFB076CDFF80CB10CF1E1
:103EB0000C0EBBE80F00AEE80F009BE803004FF0CC
:103EC00005028CF801204FF000028EE80300DCF8B8
:103ED00010308CF87820D9074FEA63020AEB6300B0
:103EE00045BF5AF80220DCF80C30DCF80C30D3580F
:103EF00098475046FCF70AF940F2A44303FB07F346
:103F000026E64FF6F4339C4540F2B28009F10201F7
:103F1000314421E64FF6F43188427FF673AF6CE707
:103F2000B6F8A604B6F8A8C45FE74FF6F4318842A5
:103F300000F23381042B3FF47EAD4FF0000E4FF0C2
:103F40000408DFF870C0174FBCE80F000FC79CE8EB
:103F50000300336987E803005A1006EB6300DB07B0
:103F600045BFB258F368F368D35886F8018086F8E5
:103F700078E0984773781A1F012A40F2E581336A86
:103F80005A10D90706EB630045BFB258F369F369CD
:103F9000D35807493278984732784CE57088B7880B
:103FA000EFE600BF5C02002050020020F606002071
:103FB00052020020F0BD000808BE000800070020E3
:103FC0003278002A40F00981B188F0884FF6E75234
:103FD000914240F2F380904240F28B81052B3FF4F6
:103FE000C7AB4FF005084FF0000EDFF850C3D04FBD
:103FF000BCE80F000FC79CE80300336987E80300A3
:104000005A10D90706EB630045BFB258F368F3684E
:10401000D35886F8018086F878E09847C548FCF7C1
:1040200075F8FFF7A5BB96F8A424002A40F0DE80BF
:10403000B6F8A814B6F8AA044FF6E752914240F237
:10404000CF8090423FF699AC4FF6F43290423FF663
:104050003CAB042B3FF439AB4FF004094FF00008A0
:10406000DFF8DCE292E44FF6F4318B423FF649AFE1
:1040700004283FF44BAF40F2A44C0CFB076CDFF874
:10408000C0B20CF10C0EBBE80F00AEE80F009BE8CD
:1040900003004FF004028CF801204FF000028EE87C
:1040A0000300DCF810308CF878200AEB63005A101B
:1040B000DB0745BF5AF80220DCF80C30DCF80C3086
:1040C000D358984740F2A44202FB07F2B31859783C
:1040D000081F012840F27D8140F2A44340F2A44B26
:1040E00003FB07631A6A0BFB07FB51100AEB620024
:1040F000D20744BF5AF80120DB6909F102013144BB
:104100004CBFD358DB6916F80B200191984716F87D
:104110000B20019920E54B88B1F804C0B8E6F35CA8
:10412000002B40F0A9809388D0884FF6E752934245
:1041300040F28680904240F2EE8005293FF469AB60
:1041400040F2A44C0CFB076CDFF8F0B10CF10C0E44
:10415000BBE80F00AEE80F009BE803004FF005023C
:104160008EE80300DCF810308CF801204FF00002DC
:10417000D9078CF878204FEA63020AEB630045BF49
:104180005AF80220DCF80C30DCF80C30D358984791
:104190005046FBF7BBFFFFF73CBB4FF6F4318F42B5
:1041A0003FF649ACC6E64FF6F43081427FF62AAEC0
:1041B00023E6B6F8A614B6F8A8C42EE54FF6F432F6
:1041C000914200F29680042B3FF4D2AA4FF00408EB
:1041D0004FF0000EDFF868C109E77188B088F5E696
:1041E0004FF6F43291427FF634AF2DE7B6F8A614BD
:1041F000B6F8A80420E74FF6F43291427FD8042B9A
:104200003FF461AB4FF004084FF0000EDFF830C10F
:104210008EE57188B0887AE53278002A40F01981FD
:10422000B188F2884FF6E750814240F20C81824219
:104230003FF675AD4FF6F4318A423FF644ABDEE708
:104240004FF6F432934266D804293FF4E2AA40F2D2
:10425000A44C0CFB076CDFF8E8B00CF10C0EBBE8CB
:104260000F00AEE80F009BE803008EE803004FF05C
:104270000402DCF8103077E75388908855E796F809
:10428000A424002A40F0A080B6F8A814B6F8AA2406
:104290004FF6E750814240F28980824240F2DC8052
:1042A000052B3FF4DAAD4FF005094FF00008DFF8B9
:1042B0008CE0DFF890C0BEE80F00ACE80F009EE88D
:1042C0000300D6F8B4348CE803005A1007EB6300FF
:1042D000DB0745BFBA58D6F8B034D6F8B034D35857
:1042E00086F8A59486F81C8598471348FBF70EFFBF
:1042F000B3E54FF6F43290423FF63AAA63E74FF641
:10430000F43290423FF6DFAA79E7B6F8A624B6F871
:10431000A804FFF72ABB4FF6F43398423FF679AA78
:1043200092E74FF6F4318A427FF693AE8CE600BFF7
:104330005C02002050020020F406002008BE0008A5
:10434000F0BD0008000700203278002A40F0B78056
:10435000B188F2884FF6E750814240F2A280824253
:1043600040F2B680052B3FF40AAE4FF005084FF03F
:10437000000EDFF870C1594FBCE80F000FC79CE872
:104380000300336987E803005A10DF0706EB630078
:1043900045BFB258F368F368D35886F8018086F8B1
:1043A00078E098474E48FBF7B1FEE8E54FF6F43069
:1043B000814251D8042B3FF450AD4FF004094FF027
:1043C0000008DFF824E174E7B6F8A614B6F8A824CC
:1043D0005EE7B25C002A61D19A88DB884FF6E7502D
:1043E00082423FD983426DD905293FF475AE40F230
:1043F000A44C0CFB076CDFF8ECB00CF10C0EBBE826
:104400000F00AEE80F009BE803004FF005028EE8B6
:104410000300DCF810308CF801204FF00002D907BF
:104420008CF878204FEA63020AEB630045BF5AF824
:104430000220DCF80C30DCF80C30D358984750469A
:10444000FBF764FE48E64FF6F43081427FF6D7AEC4
:10445000F0E67188B288E5E64FF6F4318A423FF61D
:10446000FCACA7E74FF6F43082422BD804293FF486
:1044700033AE40F2A44C0CFB076CDFF86CB00CF1CF
:104480000C0EBBE80F00AEE80F009BE803008EE8BF
:1044900003004FF00402DCF81030BCE75A889B8818
:1044A0009CE74FF6F430814212D8042B3FF467ADFD
:1044B0004FF004084FF0000EDFF82CC05BE7718866
:1044C000B28847E74FF6F43293423FF605AECDE7A8
:1044D0004FF6F4318A423FF652ADE6E75C02002027
:1044E0005002002008BE0008F0BD00082DE9F04190
:1044F0008046002682B000F5AC77051F55F8044FC2
:1045000037F8021B2B692A6AC4EBC4040C44E4107C
:10451000D01884426946A3EB02032C6002DA9C4265
:1045200000DD42B94046ADF802600194FEF78EFF0F
:1045300040232C612B620136042EDFD102B0BDE88E
:10454000F08100BF30B5D0F84C31D0F84821044696
:104550009B1ADA0683B02BD06D4607E01AB3D4F865
:104560004C31D4F848219B1ADB0621D0D4F84831CD
:1045700004EBC302D2E9120185E803009DF8002094
:10458000013303F01F03042AC4F84831E6D1019B2C
:10459000CBB9BDF80230022B1AD0032BDFD1012397
:1045A00084F84130DBE729462046FEF74FFFD6E787
:1045B000094A616C13685B1AB3F57A7F84BF13688C
:1045C000636403B030BD29462046FEF7C9FBC6E749
:1045D000012384F84030C2E7840D0020012AF0B4A2
:1045E00025D0012500244FF4817603238A88B1F871
:1045F00000C04F88C9882A4102850187144A15499D
:10460000A0F834C0C78644850466A0F8446080F8EA
:1046100046504162C265B0F94C209A4205DD002344
:10462000A0F84C304365A0F85030F0BC7047002231
:1046300040F2011402230E884D88064902858686C1
:10464000C5860266A0F84440C3654162E3E700BF47
:10465000030002000000FF7F704700BF10B440F667
:10466000FF72282400230549C0F88044C0F888144C
:1046700010BCC0F88424C0F88C34704700C0FF3FE1
:10468000002B42D0F0B5D0F880C4D0F88C740B4425
:1046900011E0744534DD47F6FF74D0F884642D13BF
:1046A0006D4206FB05F5C0F894E4C0F890549942B9
:1046B00022F8024B23D011F8016BD0F89044B607D2
:1046C0003D4656BF2546D0F88844D0F89444A5EB23
:1046D0000C052E132C19DFF834E0C6F10006C0F8E3
:1046E0009054D6D50024D0F88454994205FB06F5A1
:1046F000C0F89444C0F8905422F8024BDBD1F0BDCE
:10470000C0F8944444F3CF34D1E770470080FF3FB2
:1047100000230422A0F89A34A0F89824A0F89C342E
:10472000A0F89E34A0F8A03480F8A234704700BFEF
:104730008BB370B40B4411F8016B90F89944B50732
:104740000CD5013490F8A254E4B280F899442DB10C
:1047500000252C4680F8A25480F8995490F898547B
:10476000022D04D9B60644BF012680F8A264A542F2
:1047700003D800252C4680F8995400EB4404B4F982
:104780009A44994204EB84044FEAE40422F8024B71
:10479000D1D170BC7047704700F2344002F05ABE6D
:1047A00000F2344002F03EBE00F54A7002F080BDD7
:1047B00000F54A7002F064BD012A4BD00B88B3F5B6
:1047C000804F33D9B3F5004F8EBF00221A11C2F5C6
:1047D0000062A0F8022303EBC3039B0903F54063C7
:1047E000A0F804334B889B1003EB43039B10A0F805
:1047F00006338B885A109B1002F5804203F5005354
:10480000A0F80823A0F80A33B1F90620CB88002AC3
:1048100011DB0021C3F5FF437F3303FB03F3C3F335
:104820008F32A0F80C13A0F80E2370474FF480626B
:10483000A0F80223CFE70022A3F5004303FB03F314
:10484000C3F34D4303EB830399B2A0F80C13A0F814
:104850000E2370474A8800F54070098801F0A8BE11
:1048600000F5407001F032BF00F5407001F098BED5
:1048700000F5257001F03AB900F5257001F018B97E
:1048800000F5EC7001F0CABB00F5EC7001F076BBEE
:1048900000F5B87002F096B800F5B87002F05EB896
:1048A000683002F04FBB00BF683002F00DBB00BFA4
:1048B000243002F041BC00BF243002F019BC00BF1C
:1048C000012AF0B430D00124CB884A88C3F57F4355
:1048D000FF3303FB03F702FB02F68D880A8805FB12
:1048E00005F53F0C03FB07F3310C01FB01F6A2F5C4
:1048F000004212B2A90CC2EBC2029B0C121201EBD5
:104900004101360EC3F5FF4302F5786201F50071EF
:10491000C0F8B46180F8AC41C0F8CC21A0F8B03147
:10492000C0F8D011F0BC70474FF4786523244E884E
:104930000B88C6F57F41FF3101FB01F65B1003F5E3
:104940000053360C03FB03F301FB06F19B0C03EB56
:104950004303890C03F50073C1F5FF41C0F8CC5146
:10496000C0F8B441C0F8D03180F8AC21A0F8B01143
:10497000F0BC7047012AF0B429D040F6FF760A88CF
:10498000254C1312A51C35F8135034F813404B88EE
:10499000D2B22D1BC3F57F4302FB05F5FF33CA8856
:1049A00003FB03F38988A2F5004204EB252412B22D
:1049B000A4B2A6EB135312018903C0F88044C0F8D7
:1049C0008434C0F88C24C0F88814F0BC704740F6DA
:1049D000FF7500260C88104A4B882712911C31F86D
:1049E000171032F81720C3F57F43891AE4B204FB8D
:1049F00001F4FF3303FB03F302EB24220749A5EB89
:104A0000135392B2C0F88C64C0F88434C0F8802488
:104A1000C0F88814F0BC7047D081000800C0FF3F88
:104A2000012A10B590F8783004462BD09BB18A88C3
:104A30000888A2F500424B88A4F86C20CA8803EBD2
:104A40008303A2F50042401012041B14C4E91C2089
:104A500084F86A3010BD4FF4A0420B884267A0F87A
:104A600068308A884B88A2F50042A0F86C20CA887A
:104A700003EB8303A2F5004212041B14026780F8C3
:104A80006A3010BD83B10B884A8803EB83031B1483
:104A9000A2F5004280F86A30A0F86C2000224FF4A2
:104AA000A043C4E91C2310BD0B8820F8683F498847
:104AB00002F036FAF2E700BF0B88012AA3F50043A3
:104AC000B0F99A241BB225D09A4218BFA0F89A34A4
:104AD0004B88B0F99C24A3F500431BB29A4218BF3F
:104AE000A0F89C348B88B0F99E24A3F500431BB238
:104AF0009A4218BFA0F89E34CB88B0F9A024A3F541
:104B000000431BB29A4218BFA0F8A034042380F8D7
:104B1000983470479A4218BFA0F89A344B88B0F97D
:104B20009C24A3F500431BB29A4218BFA0F89C3402
:104B3000022380F898347047012A0FD00B88A0F820
:104B400028334B885B10A0F82A338B885B10A0F8C1
:104B50002C33CB885B13A0F82E3370470023A0F8CA
:104B600028330B885B10A0F82A330B885B1003F501
:104B70000063A0F82C334B885B13A0F82E337047EA
:104B8000012A0DD00B88A0F836344B88A0F83434B5
:104B90008B885B10A0F83834CB88A0F83A34704783
:104BA0004FF6FF730022A0F836340B88A0F8343497
:104BB0004B88A0F83A245B10A0F83834704700BF47
:104BC000012AF0B44DD00B8890F86822A3F5004379
:104BD0001BB2C3EBC303C3F30F2303F5D05503F597
:104BE000005403F54853A0F82A52A0F84A421BB2D9
:104BF0008AB3A0F86A328B8847F248165B08B3F58F
:104C0000E04F28BF4FF4E04346F2847545F2F0547C
:104C1000012703F50073B1F802C0A0F89032CB88E9
:104C200080F86822991306EB531201F6FC7105EB2C
:104C30005313A0F82C22A4EB9C0204EB9C04C0E9C3
:104C4000A22480F8287280F84872C0F81812A0F8E0
:104C50004C32F0BC7047B0F96A22D21A18BF012258
:104C6000C7E74FF4D0524FF4005390F86842A0F8D1
:104C70002A22A0F84A3264B34FF4485547F248520A
:104C800046F68433A0F86A52A0F82C22A0F84C32E1
:104C90004B8845F2F0525B08B3F5E04F28BF4FF464
:104CA000E043012540F6FE76098803F50073A0F87D
:104CB0009032A2EB910302EB910280F8684280F8F7
:104CC000285280F84852C0F81862C0E9A232F0BCFD
:104CD0007047B0F96A42B4F5485418BF0124CBE7D5
:104CE00090F878302DE9F04104464170002B36D120
:104CF000022969D100F58072C0F8483100F18003C3
:104D00001046002143F8041B8342FAD104F5927344
:104D1000002142F8041B9A42FAD104F5A471002242
:104D200043F8042B8B42FAD1012538483849394BD6
:104D30002261A261226284F87850E0606161E361DF
:104D40002278236A591004EB6300DB0745BF6158E2
:104D5000E369E369CB58A11CBDE8F041184702297B
:104D60000CBF012700272C4D01EB410100F10C067F
:104D700005EBC10584F878700FCD0FC695E80300E8
:104D800086E80300DCD023695A10D90704EB6300DE
:104D900045BFA258E368E368D358984763781A1F61
:104DA000012A2278CDD842BBA188E5884FF6E7508A
:104DB000814217D9854223D9052BC2D0052120462F
:104DC000FFF78EFF2278BCE7134D01EB410100F1A4
:104DD0000C0605EBC1050FCD0FC695E8030086E86C
:104DE0000300D0E74FF6F430814209D8042BA8D055
:104DF00004212046FFF774FFA2E76188A588D5E764
:104E00004FF6F4318D429CD8F0E700BFA948000866
:104E1000A1480008214A000890BD0008F8B5002507
:104E2000B24F04460E462B463A4602E05B6852F803
:104E3000302004EB63005910DB0748BF635805F1CD
:104E4000010548BF9A589047A94A05EB45000B2D2C
:104E500002EBC003EAD1A6F10106B6FA86F604F524
:104E6000B87001F07BFD04F5EC7001F087F876096D
:104E700004F5407001F094FB04F5257084F800639C
:104E8000002500F015FE282140F6FF72994BC4F86A
:104E90008014C4F88424C4F8883404F16800C4F889
:104EA0008C5402F011F804F1240002F021F904F509
:104EB0004A7002F0E5F904F2344002F0B3FA04213A
:104EC0008D4A8E4B6261E3612046A4F89A54A4F89F
:104ED0009C54A4F89E54A4F8A05484F8A2542580AD
:104EE00084F878502561A5612562E760A4F89814DC
:104EF000FFF7E2FC63781A1F012A16D9254615F838
:104F0000022B236A591004EB6300DB0745BF61588D
:104F1000E369E369CB58294698470A344FF40043C4
:104F200025F8023BAC42F9D1F8BD2278002A55D1D0
:104F30004FF6E750A188E588814255D9854240F275
:104F40008180052B56D0002305226D4F6D4E6E4D8E
:104F5000627084F878302361A36123622046E760A1
:104F60006661E561FFF788FC63781A1F012A58D84B
:104F70002278002A40F0EC80A088E1884FF6E75CB8
:104F8000604540F2CD80614540F2E580052B00F0A0
:104F90008280002305222046E7606661E561627039
:104FA00084F878302361A3612362FFF765FC63789E
:104FB0001A1F012A227840F2D380236A5910DD0794
:104FC00004EB630044BF6158E36904F102054CBF80
:104FD000CB58E36929469847227825E04FF6E750F9
:104FE0006188A5888142A9D84FF6F430814229D83A
:104FF000042B01D1A51C84E700230422434F444E17
:10500000444D627084F878302361A36123622046A6
:10501000E7606661E561FFF737FC63781A1F012AD4
:1050200015D9254615F8022B236A5910DE0704EB23
:10503000630045BF6158E369E369CB582946984747
:1050400022785EE74FF6F4318D42D1D9D2E722784B
:10505000002A61D1A088B4F806C04FF6E751884213
:105060001BD98C4513D9052B15D0002305252448C1
:105070002449254AE0606570204684F87830236131
:10508000A36123626161E261FFF7F6FB8FE74FF6F0
:10509000F4318C4505D9A51CC6E74FF6F43188429A
:1050A000F5D8042BF7D00023042284F878306270FE
:1050B0002361A36123622046E7606661E561FFF733
:1050C000E3FB63781A1F012A5DD9254615F8022BE8
:1050D000236A5910DF0704EB630045BF6158E36999
:1050E000E369CB582946984722789DE7B9480008DC
:1050F00090BD000800C0FF3FB1480008DD45000832
:105100007948000871480008594600088948000895
:1051100081480008C14B00086088B4F804C09CE7CF
:105120004FF6F435A84216D8042BB4D0002304253A
:1051300054485549554AE0606570204684F87830F7
:105140002361A36123626161E261FFF79DFB2EE7AA
:105150006088A18812E74FF6F4308142E4D99AE7DB
:10516000002A68D1A088E1884FF6E755A84250D9B7
:10517000A94252D9052B3FF420AF05212046FFF765
:10518000AFFD227819E72278002A3FD1A088E18874
:105190004FF6E75C60450DD961450FD9052B07D067
:1051A000254605212046FFF79BFD15F8022B8FE7CA
:1051B000A51C8DE74FF6F43C604503D94FF6F4305B
:1051C0008142F5D8042BF3D00023042284F87830F0
:1051D00062702361A36123622046E7606661E56136
:1051E000FFF752FB63781A1F012A227826D9236A17
:1051F000A51C591004EB6300DB0745BF6158E36948
:10520000E369CB5829469847227861E76088A188EE
:10521000BEE74FF6F435A84204D94FF6F430814288
:105220003FF6CBAE042B3FF4C8AE04212046FFF777
:1052300057FD2278C1E66088A18895E77AB9A088F1
:10524000E1884FF6E755A8420CD9A9420ED9052BA3
:10525000CDD005212046FFF743FD2278C7E76088BF
:10526000A188EEE74FF6F435A84203D94FF6F430A3
:105270008142BCD8042BBAD004212046FFF730FD70
:105280002278B4E78948000881480008C14B00082B
:10529000FEE700BFFEE700BFFEE700BFFEE700BF7E
:1052A000704700BF704700BF704700BF704700BF26
:1052B00008B50648FBF704F8054B9A6812F4006F2E
:1052C0004FF0200214BF1A615A6108BDF40B002090
:1052D000000C0140554B1A8AD20700D470474FF694
:1052E000FE722DE9F047524C1A822379002B6CD0C4
:1052F000002321884F48490A237102F01DFD2188AF
:105300004C48C1F3860102F019FD2379002B5AD0D5
:10531000494B4A4A9B68916883F40063C3F3C022F7
:10532000474BCF0493F8410093F8401058BF42F028
:10533000020208B141F00201424841EA0203056B52
:10534000426B6E1C032E4ED80663DFF8FCC0DE07EE
:105350009CF8007007F0010753D4002F5ED1BE46C1
:1053600002EB420605EB8606043630F816809CF800
:1053700001609B078CF80070A4F8008006F001061D
:105380004FEA420937D4002E40D13746B0464A444E
:1053900005EB820A4FEAC1098B0009F008090AF1FE
:1053A000080100EBC2024EEA090E30F8110003F0CA
:1053B000080348EA0E0E3B43511902F805E08CF849
:1053C000016060800B71BDE8F08701236188194896
:1053D000490A237102F0B4FC61881648C1F38601C2
:1053E00002F0B0FC91E7466BEF1E013606F00106B5
:1053F00046630763A9E7AEB903274FF030083E467E
:10540000C5E747B94FF0030E7746A9E704274FF0E9
:1054100040083E46BBE74FF0010EA1E74FF0040EF7
:1054200077469DE701274FF01008B0E7002C0140B8
:10543000E80B002000080040000C0140000801407B
:10544000F40B0020A40B00209C0B00202DE9F04F52
:105450008B46DFF8CC80DFF8C090074683B0A8F514
:10546000B97009EB4104FFF741F8294ACA4692F89E
:105470008C2100255B46274E002A40D140F2A442F1
:105480002449019302FB0512D2F818C007EB8501ED
:105490001CF0010F4FEA6C0E18BF526906EB6C004E
:1054A00016BF56F80EC0D2F814B05CF802B01A4A13
:1054B000D847019BBAF8002028F8022B9BB1494637
:1054C000164A07F1080032F915C000EBC50031F9A2
:1054D000022BC2F5FF427F32624482F31002A142E6
:1054E00020F8022BF3D106F2A44615B103B0BDE8B3
:1054F000F08F074A012592F88C21002ABED054452E
:10550000D8D0054A002122F8021B9442FAD1D1E7F3
:10551000F40B002050020020E00B0020980B00202C
:10552000660D00202DE9F04300250127DFF81081EA
:1055300089B02A46404640F2ED2100F0E1F8354BB3
:10554000354E36481D6000F099FA354A354B6946AC
:10555000304600925D631D639F6302F013FD7F235D
:10556000314C0293204601958DF80C5002F0B8FBA7
:10557000204601A902F07AFA2C4B204604A9049394
:10558000ADF81650ADF8185002F094FA20460821F4
:1055900002F0AEFB204604A902F0CCFA2046082116
:1055A00002F0AEFB204604A902F008FB20460821C9
:1055B00002F0B0FB204604A902F044FB204608217B
:1055C00002F0B0FB39462046194C02F071FBDFF8BF
:1055D0007490184B20461D7100F058F82946484633
:1055E000FFF71CFC394609F2A440FFF717FC2146DF
:1055F0001148FCF7D5FD114B304604A9049302F085
:10560000C1FC20234046336100F0C2F809B0BDE878
:10561000F08300BF840D0020000C0140A00B00208F
:10562000C0030318A40B0020000800406000010024
:10563000980B0020E80B0020F40B00202000021043
:10564000F00B00205002002008B5FFF76BFF0D4C57
:105650000D48FEF777FFA26B636B9A42F8D0A06B00
:10566000042100EB400004EBC000FFF7EFFEA36B4A
:10567000013303F00103A363A26B636B9A42EED183
:10568000E6E700BFA40B0020F40B00200246014611
:10569000002330B4094D0A4C2D6842F8045B24887D
:1056A00011F8015B2B448A429BB2F9D19C4202D093
:1056B00000230380438030BC704700BF00BC01085A
:1056C00004BC010838B50546044602F021F90A4831
:1056D00002F05EF955F8041B074802F07BF900213F
:1056E00014F8013B1944A54289B2F9D1BDE838400C
:1056F000024802F09FB900BF00BC010804BC0108C9
:1057000030B5154685B00C4601F090FF9DBB0121D8
:1057100044F61D2002F0D8F8012144F2060002F000
:10572000DFF80121084602F0C3F80121154802F014
:105730008FFC4FF4404002F0B1F800231248ADF85E
:105740000A3001938DF80C30ADF8084002F0C8FA29
:1057500001A90D4802F08AF901210B4802F0A8FACC
:105760004FF4A06002F0F2FA084B6846009302F092
:10577000F7FA05B030BD4FF480414FF0006002F001
:1057800021FBC4E700013000002C0140190000019A
:1057900070B4F025002007240122064B064E07496D
:1057A0005E6081F82350986011461C60044870BC0C
:1057B00002F08CBA10E000E03F19010000ED00E0BB
:1057C000002C014070B5204B88B069461F4C204822
:1057D000009302F0D7FB1F4B69462046009302F06E
:1057E000D1FB1D4B6946204608250026009302F098
:1057F000C9FB3F23A4F584342046029301958DF81C
:105800000C6002F06DFA204601A902F02FF9134B4B
:10581000204604A90493ADF81660ADF8186002F0B4
:10582000CDF92946204602F075FA204604A902F077
:1058300009FA2946204602F075FA2046012102F0B5
:1058400037FA08B070BD00BFF0000210000C014034
:10585000000801400004021003000218600001006B
:1058600038B50446184DC1782846890802F068FA10
:10587000A1782846890802F065FA62784FF48061C1
:10588000124802F0DFFB227805F582352846102108
:1058900002F0010202F0D6FB22782846202102F015
:1058A000020202F0CFFB22782846402102F00402D7
:1058B00002F0C8FB22782846BDE83840802102F07B
:1058C000080202F0BFBB00BF00040040000C014012
:1058D0004FF0FF3200B50B4B83B0026001A90A48BC
:1058E000019302F04FFB094B01A90948019302F013
:1058F00049FB084B084801A9019302F043FB03B0A0
:105900005DF804FB10000248000C01400001024851
:10591000000801400060024800100140F8B5102165
:105920000446C678134802F087FB760076B2064339
:105930004FF48071E6701048A57802F07DFB6D0091
:105940000E4F6DB205434FF40051A57038462678CE
:1059500002F072FB760076B206434FF4804138467F
:105960002670657802F068FB6D006DB205436570C6
:10597000F8BD00BF000C01400008014000100140CC
:10598000F0B5394B93B0064601A93848019302F0AF
:10599000F9FA374801F0C6FE80234FF480714FF4C6
:1059A000806000244FF40052042520270C93314BD3
:1059B0000D910E9007A92E48CDE90F720793CDE9FE
:1059C00008640B9411940A9501F03EFF01212848C8
:1059D00001F05AFF284802F0FFF940F201164FF497
:1059E00060224FF40063244802A9CDE90423029405
:1059F0008DF81850ADF80C6002F024FA072301224C
:105A000003211D4802F074FA0222072311461A48A6
:105A100002F06EFA072303220121174802F068FA08
:105A20002A4621460723144802F062FA124801214F
:105A300002F02CFA104802F03DFA0F4802F040FA4A
:105A40000028FAD10C4802F03FFA0B4802F042FA63
:105A50000028FAD10121084802F022FA0121064863
:105A600002F03CFA13B0F0BD0F0001000008014045
:105A7000080002404C2401400024014000B5084BBE
:105A800083B001A90748019302F07CFA064B07484E
:105A900001A9019302F076FA03B05DF804FB00BFA0
:105AA000001002480008014000080248000C0140B4
:105AB000002370B401224FF4525645F6C0554FF4FE
:105AC0005C5440F6FD71468085804484C0E905330E
:105AD00070BCC0E90D33C0E9123341648360836256
