:020000040800F2
:10000000D8020020D17D0008C12D0008B12D0008C4
:10001000B52D0008B92D0008BD2D00080000000016
:10002000000000000000000000000000C52D0008D6
:10003000C92D000800000000CD2D0008D12D0008BA
:10004000117E0008117E0008117E0008117E000854
:10005000117E0008117E0008117E0008117E000844
:10006000117E0008117E0008117E0008117E000834
:10007000117E0008117E0008117E0008117E000824
:10008000117E0008117E0008117E0008117E000814
:10009000117E0008117E0008117E0008117E000804
:1000A000117E0008DD2D0008117E0008117E000879
:1000B000117E0008117E0008117E0008117E0008E4
:1000C000117E0008117E0008117E0008117E0008D4
:1000D000117E0008117E0008117E0008117E0008C4
:1000E000117E0008117E0008117E0008000000004B
:1000F0000000000000000000000000000000000000
:1001000000000000000000005FF808F12DE9F84F42
:10011000044690F8605194F8623190F86101082229
:1001200004F5BE7184F8640184F8653184F8635184
:1001300004F5B37007F06EFE0022B4F874312F4E50
:100140002F4903EB830306EB83068E4284F86F216D
:10015000A4F8702184F8722104F2631738D89D0046
:1001600007F066FA274B28482B440340304005F13E
:10017000006B8342254EDFF8A0900BF5E03B3AD1AF
:100180002E44A9446FF4B1783D46A8EB040804F26C
:10019000731A08EB0B00284455F8041B07F0AAFA61
:1001A0005545F6D1002117F8013B1944574589B24E
:1001B000F9D1484607F0CEFA3046B4F8741107F08A
:1001C000C9FAB4F874310133A4F87431BDE8F88F7A
:1001D000A4F8742107F02CFA0D4D284607F068FAB0
:1001E0000C4B05F580659D42F7D1DFF82C90074E4A
:1001F000DFF81CB0C6E707F05BFAC1E714C00108DE
:10020000FFFF0108FFBF010800FCFFFF12C001084B
:1002100000C001080000020810C001082DE9F043E9
:10022000A34D00F5AA762B6804460133304683B00F
:100230002B6003F0EBF8304610F8012B0023802AE6
:1002400017D09ABB04F1300151F82370DEB24FB1E0
:10025000012B07D8D5F800C0ACEB0707B7F5167F20
:1002600000F39E80032E43D010F8012B0133802A27
:10027000E7D14FF0040C0027D4F84C6104F1480298
:10028000711C02F836C001F01F0102EBC602538058
:100290005760C4F84C112E682A6804F13001666476
:1002A00041F8232010F8012C002ACBD07F2A52D10C
:1002B00004F13001DEB251F82370002FD2D04FF09C
:1002C000040E2968D4F84CC1013104F14802C91B5D
:1002D0000CF1010702F83CE007F01F0702EBCC022B
:1002E00051605380C4F84C712A68032E6264BBD1FC
:1002F00094F89031002B7FD194F860212B68022A6A
:10030000C3F3C71368D0032A27D02B6802F0010279
:10031000DB0584F851216BD594F86121032A13463B
:1003200000F29580111F122900F22781DFE811F0F9
:100330001901E900ED00F100F500F900F100FD0000
:1003400015010101E900F90091000101F5001D010D
:10035000ED009100FD00DEB284E703F00503A3F198
:100360000103B3FA83F32A685B0912F4807F84F8EF
:10037000513194F8622194F86131D3D0032AD1D954
:10038000043A122A00F2F580DFE802F0DFDFDFDF57
:10039000DFDBDBDBDBDBD7D7D7D7D7D7E3E3E30084
:1003A000C6F1010C5FFA8CFCA4449CF854C1BCF16A
:1003B000000F33D194F87B7162630137FFB2032FD2
:1003C000226384F87B7101D184F87B2110F8012C21
:1003D0007F2A3FF470AF47E703F00703A3F101035F
:1003E000B3FA83F32A685B09D20584F8513193D4B8
:1003F00094F861311A4695E700230F21012204F594
:10040000A87084F8501184F8512184F8523184F88E
:10041000533103B0BDE8F04302F09ABF4FF0040936
:10042000D4F84C8104F1480C08F1010E0CF8389016
:100430000EF01F0E0CEBC80CCCF80470ACF80230B8
:10044000C4F84CE12F68676441F823200AE713469B
:1004500096E70C2284F8502104F5B17004F5BB71C5
:1004600001AA04F26315013B152B23D8DFE803F042
:100470000B0B3C22222222220B0B0B0B0B0B0B2211
:100480002245223C3C3C40F29913B1F9006003FB49
:1004900006F31B1203F50043A3F3082313708542F0
:1004A00001F1020102F101020FD010F8013BDAE77D
:1004B00008170020B1F9003085424FEAE3131370AA
:1004C00001F1020102F10102EFD19DF805209DF832
:1004D000043004F5A87084F8532184F8523103B035
:1004E000BDE8F04302F034BFB1F90030002BB8BFD3
:1004F0005B42C3F307231370D1E70B885B111370C2
:10050000CDE7052284F85021A6E7092284F850217E
:10051000A2E7072284F850219EE70D2284F850219B
:100520009AE7062284F8502196E70A2284F850219F
:1005300092E70E2284F850218EE7042284F850219D
:100540008AE7022284F8502186E7012284F85021AC
:1005500082E7082284F850217EE70B2284F850219C
:100560007AE7032284F8502176E70F2284F850219D
:1005700072E7102284F850216EE7012102F0030295
:1005800001FA02F284F8502166E700BF70B5D0E9A5
:100590000612D0E9045490F8603182B0012BADF816
:1005A0000050ADF80240ADF80410ADF8062043D07D
:1005B00033B30022374C236A2270D9074FEA630213
:1005C00004EB630036D5A258E369D35800223249C0
:1005D00098470021D4F83C39304A84F81C1902EBC2
:1005E00063005910DB0745BF8A58D4F83839D4F86E
:1005F0003839D35800222A4902B0BDE87040184764
:100600006A46154603CA244AD2F81E60941E10603A
:10061000516003CDF50702F8023CC2F81C09C2F88C
:1006200020194FEA660304EB660003D5E258E3693C
:10063000D358CBE7E369C9E7164CDDE90001226A2C
:10064000C4F80200C4F81E1904EB620023705310B2
:10065000D20745BFE258E369E369D3580E49012246
:1006600098470121D4F83C390C4ADE0784F81C195C
:1006700043FA01F102EB630045BF8A58D4F83839D8
:10068000D4F83839D3580122054902B0BDE870408A
:10069000184700BFD8020020DA020020F40B002027
:1006A000F60B00202DE9F84F90F860310646012B3B
:1006B0000F46154640F2D48040F61C1909FB01F99B
:1006C000864C874B04EB090803EB420313F801C087
:1006D00098F87800731883F8612188F801C0002821
:1006E00040D1BCF1020F40F0AA8109F16802A118C3
:1006F000C1F8E00001F1180301F19802002043F86D
:10070000040B9342FAD101F1BC03002042F8040B20
:100710009A42FAD101F1E0024FF0000C43F804CB09
:100720009342F9D140F61C1E01230EFB074E8EF8B2
:10073000783088F87EC788F8CAC79EF818A8BAF13A
:10074000000F40F04583DFF8A0B10EF10C0CBBE8C0
:100750000F00ACE80F009BE803008EF818A88CE8A7
:10076000030047E0ACF10201ACF11502ACF1170354
:10077000B1FA81F1B2FA82F2B3FA83F3ACF1180A5A
:10078000BAFA8AFA98F818E8490952095B0988F810
:10079000781088F87E2788F8CA374FEA5A1ABEF1CF
:1007A000000F00F0A4814F4B0CEB4C0E03EBCE0E70
:1007B00008F10C0BBEE80F00ABE80F009EE8030049
:1007C000BCF1020F8BE8030088F818A812D0BCF126
:1007D000180F0FD040F61C1303FB07431A69511082
:1007E00008EB6200D20745BF58F80120DB68DB68E0
:1007F000D358984740F61C1303FB07431A6A08EBCB
:1008000062005110D20745BF58F80120DB69D3F8C8
:100810001C8052F8038040F61C1303FB07F309F118
:100820000201E25C2144C047162D00F23D81DFE861
:1008300015F0530153015301530148014801480188
:10084000480148013D013D013D013D013D013201AD
:1008500032013201320132013201940194019401DA
:100860001E4CDFF87C8094F8783018F812C086F8B7
:10087000622186F8612184F801C0BBBBBCF1020F84
:1008800040F0A481C4F8483104F5807104F180037C
:10089000002243F8042B8B42FAD103F124010022F9
:1008A00043F8042B8B42FAD103F124024FF0000EDF
:1008B00043F804EB9342F9D1012294F8189884F894
:1008C0007EE784F8CAE784F87820B9F1000F40F099
:1008D000D982DFF814E0A3F59E7C6CE1D8020020F9
:1008E000E07E0008D0BA000800BB0008ACF10201AD
:1008F000ACF11502ACF11703B1FA81F1B2FA82F250
:10090000B3FA83F3ACF1180ABAFA8AFA94F818E841
:10091000490952095B0984F8781084F87E2784F825
:10092000CA374FEA5A1ABEF1000F00F02181BD4BC1
:100930000CEB4C0E03EBCE0E04F10C09BEE80F00DD
:10094000A9E80F009EE80300BCF1020F89E803004C
:1009500084F818A80DD0BCF1180F0AD023695A10DA
:1009600004EB6300DB0745BFA258E368E368D35894
:100970009847236A08EB45085A10D90704EB63002F
:1009800045BFA258E369E369D358A749227898473D
:1009900098F801C094F8943984F81DC9002B40F0F0
:1009A0005181BCF1020F40F0D081DFF888C2C4F859
:1009B000643A0CF1800200234CF8043B9445FAD1D0
:1009C0000CF1240200234CF8043B9445FAD10CF1BD
:1009D00024034FF0000E4CF804EB9C45F9D10123A1
:1009E0009CF8D0968CF836E68CF882E684F8943938
:1009F000B9F1000F40F02382DFF83C82ACF59E7E17
:100A0000B8E80F00AEE80F0098E803008EE8030096
:100A1000DFF828828CF8D096D4F83C395A10D907E0
:100A200008EB630045BF58F80220D4F83839D4F8F1
:100A30003839D3587D4994F81C299847F4E6ACF12D
:100A40001501ACF11702B1FA81F1B2FA82F2ACF100
:100A5000180ABAFA8AFA98F818384909520988F82F
:100A60007E1788F8CA274FEA5A1A002B40F09E8159
:100A7000BCF1180F3FD06B4B0CEB4C0C03EBCC0CC8
:100A800008F10C0EBCE80F00AEE80F009CE8030074
:100A90008EE803009EE696F86031012B8CBFF619B4
:100AA00086F8985186F89751BDE8F88F96F860312E
:100AB000012B8CBFF61986F8965186F89551BDE842
:100AC000F88F96F86031012B8CBFF61986F8945197
:100AD00086F89351BDE8F88F96F86031012B8CBFF2
:100AE000F61986F8925186F89151BDE8F88FBCF15D
:100AF000180F40F07C8109F5FF62A118002201F176
:100B00002803C1F8F02001F1A802002043F8040BEB
:100B10009342FAD101F1CC03002042F8040B9A422F
:100B2000FAD101F1F002002143F8041B9342FAD1FB
:100B300040F61C1A4FF0010B0AFB074ADFF800E1F0
:100B40000AF10C0CBEE80F00ACE80F009EE80300B1
:100B50008AF818B88CE803004CE696F86031012B4F
:100B60008CBFF61986F89A5186F89951BDE8F88F2E
:100B7000BCF1180F40F0AD8100222D4BC4F8E828DD
:100B800003F18001002243F8042B8B42FAD103F1D8
:100B90002401002243F8042B8B42FAD103F12401F3
:100BA000002243F8042B8B42FAD14FF00109DFF801
:100BB00090E0A3F6DC0CBEE80F00ACE80F009EE866
:100BC000030084F818988CE80300D2E6ACF1150114
:100BD000ACF11702B1FA81F1B2FA82F2ACF1180A63
:100BE000BAFA8AFA94F818384909520984F87E1733
:100BF00084F8CA274FEA5A1A002B40F03181BCF121
:100C0000180FB9D0074B0CEB4C0C03EBCC0C04F1D8
:100C10000C0EBCE80F00AEE80F009CE803008EE865
:100C200003009BE6D0BA0008DA020020F60B002091
:100C3000F80A0020740C002000BB0008F40B002010
:100C400010BD000841F23419ACF10208ACF11500F6
:100C5000ACF11702B8FA88F8B0FA80F0B2FA82F272
:100C6000ACF1180A41F29A0141F2E603BAFA8AFAA3
:100C700014F809E04FEA58184009520984F8948999
:100C80006054E2544FEA5A1ABEF1000F32D1BCF15F
:100C9000180F40F00681002141F20422984BA15028
:100CA00003F18001002243F8042B8B42FAD103F1B7
:100CB0002401002243F8042B8B42FAD103F12401D2
:100CC000002243F8042B8B42FAD141F234194FF041
:100CD000010ADFF834E2DFF834C2BEE80F00ACE806
:100CE0000F009EE80300ACF11C088CE8030004F838
:100CF00009A091E6834BDFF814820CEB4C0E03EB5A
:100D0000CE0EBEE80F00A8E80F009EE80300BCF17D
:100D1000020F88E8030004F809A000F0D780BCF1B6
:100D2000180F00F09A80D4F82C39DFF8E4815A10BB
:100D300008EB6300DB0745BF58F80220D4F82839D8
:100D4000D4F82839D358984766E641F23419ACF103
:100D5000150EACF11701BEFA8EFEB1FA81F1ACF1BD
:100D6000180A41F29A0041F2E602BAFA8AFA14F835
:100D700009304FEA5E1E490904F800E0A1544FEA29
:100D80005A1A002B49D1BCF1180F84D05D4BDFF803
:100D90007CE10CEB4C0C03EBCC0CBCE80F00AEE898
:100DA0000F009CE803008EE80300BCE7554B0CEBFA
:100DB0004C0E03EBCE0E08F10C0BBEE80F00ABE8B7
:100DC0000F009EE8030088F818A88BE80300FEE4F3
:100DD000DFF840B10EF10C0ABBE80F00AAE80F00E3
:100DE0009BE803008EF818C88AE8030002E5454B2B
:100DF0000CEB4C0A03EBCA0A08F10C0BBAE80F0023
:100E0000ABE80F009AE80300BCF1020F8BE8030087
:100E100088F818E87FF4DEACECE43A4BDFF8EC80BD
:100E20000CEB4C0E03EBCE0EBEE80F00A8E80F0053
:100E30009EE8030004F809A088E803006FE7DFF8E4
:100E4000D490ACF59E78B9E80F00A8E80F0099E8B7
:100E5000030088E803008CF8D0E6DFF8B480DBE517
:100E6000284B0CEB4C0E03EBCE0E04F10C09BEE844
:100E70000F00A9E80F009EE8030084F818A889E88D
:100E8000030068E5DFF88C90A3F59E7CB9E80F00BD
:100E9000ACE80F0099E8030084F818E88CE8030038
:100EA00067E5184BDFF864800CEB4C0A03EBCA0AC9
:100EB000BAE80F00A8E80F009AE80300BCF1020F9F
:100EC00088E8030004F809E07FF42DAFA8F11C08BE
:100ED000A2E50C4B0CEB4C0903EBC90904F10C0A1D
:100EE000B9E80F00AAE80F0099E80300BCF1020F6F
:100EF0008AE8030084F818E87FF430AD39E500BFD4
:100F000014140020D0BA000810BD0008000C002006
:100F1000F40B002000BB00082DE9F8430646C0F89A
:100F20008C1100F5A87002F0C5F906F5AA7002F060
:100F300047FA06F5AC7002F09BFA00237749C6E940
:100F400004330A68C6E9063301320A60C6E9083389
:100F50004FF48041C6E90A3371487360B360F360AF
:100F6000336086F8853186F8863186F8873186F8D1
:100F7000883186F87A3106F0EFFEB0FA80F040F260
:100F8000323E4009674D86F8900106F2631706F27B
:100F900073182C46BC460FCC002438607960BA60C8
:100FA000FB601CF8013B1C44E045A4B2F9D12B8A3C
:100FB000A3423AD05C4B143D9D420EF1FF3EE8D176
:100FC0000023A6F87431A6F8603186F8623186F8FD
:100FD0006E314FF40051524806F0BEFE002800F07A
:100FE00089803046FFF7D2FA0021304696F8612119
:100FF000FFF758FB0121304696F86221FFF752FBBC
:1010000000234FF4806441F20E401421474A86F8D1
:101010007B3186F89131A6F89241A6F8980186F8BE
:101020009A11C6F89421BDE8F8836B8A7345C1D143
:10103000082296F8641196F8634196F865310EF12E
:10104000010E86F86111A6F874E186F8604186F811
:10105000623106F5B371002A56D1023C012CB8D892
:101060004FF480720023324FC6E90822C6E90A22F3
:1010700086F8853186F8863186F8873186F888319A
:10108000BC1E07F61A1806F5BE7506F5C07915F8E8
:10109000013B1B0227F8023B236AD9074FEA630290
:1010A00004EB630045BFA258E369E369D3582049C4
:1010B00022789847EB781F491B02A7F81A39D4F811
:1010C0003C395A1008EB6300DB0745BF58F8022093
:1010D000D4F83839D4F83839D35894F81C299847BB
:1010E000A945D4D14FF400510D4806F035FE002833
:1010F0007FF477AF96F86E31304683F0010386F8BF
:101100006E31FFF703F86CE706F5BE70023C06F09F
:1011100081FE012C3FF65DAFA2E700BF081700205B
:1011200000100140E8FF0108ECBF01080409090EA6
:10113000DA020020F60B002090F890312DE9F04102
:1011400004465BB94B88032B06D8DFE803F02F5524
:10115000022A002380F84030BDE8F0814D88002D40
:10116000FAD1D0F88C0102F025F82046A4F860519D
:1011700084F8625184F86E51FEF7C8FF2046FFF7ED
:1011800005FA2946204694F86121FFF78BFA0121E0
:10119000204694F86221FFF785FA84F89051BDE863
:1011A000F081002380F84130BDE8F0814B68B3F551
:1011B000167F90F8603158DC012B40F20F814FF41C
:1011C0008071002203F00103C0E90811C0E90A118F
:1011D000C3F1030380F8603180F8852180F886210F
:1011E00080F8872180F888212046FFF7CFF9204634
:1011F000BDE8F041FEF78ABF90F860314968032BE3
:101200000CBF90F8622190F86121B1F5167F0CDDDA
:10121000032A22D9082A00F28581012B8ABFC2182D
:1012200090F8952192F8932109E0032A11D9082A10
:1012300000F26F810132D2B2092A08BF0422991E3E
:101240002046C9B2FFF72EFA2046BDE8F041FEF76E
:101250005DBF013202F00302F1E7012B8ABFC21821
:1012600090F8932192F89121E9E790F86221C44D1A
:10127000C44F023303F0030317F8126080F86031A3
:1012800095F8783080F861216E70002B40F0FE8078
:10129000022E40F0DF81C5F8483105F5807105F177
:1012A0008003002243F8042B8B42FAD103F124017E
:1012B000002243F8042B8B42FAD103F124024FF0B1
:1012C000000C43F804CB9342F9D1012295F818E8B9
:1012D00085F87EC785F8CAC785F87820BEF1000F6B
:1012E00040F01682DFF8C4C2A3F59E76BCE80F007A
:1012F0000FC69CE8030086E8030085F818E82B6A0F
:10130000A1495A10DE0705EB630045BFAA58EB69F7
:10131000EB69D3582A78984794F8613195F8942965
:1013200007EB43077E7885F81D69002A5BD1022E02
:1013300040F06481954EC5F8642A06F180020023CE
:1013400046F8043B9642FAD106F12402002346F8FF
:10135000043B9642FAD106F12403002746F8047BA9
:101360009E42FAD1012396F8D0E686F8367686F8C2
:10137000827685F89439BEF1000F40F0B981DFF82C
:101380002CC2A6F59E77BCE80F000FC79CE80300AF
:1013900087E8030086F8D0E67D4ED5F83C397D49D4
:1013A0005A1006EB6300DB0745BFB258D5F8383951
:1013B000D5F83839D35895F81C29984700234FF4AD
:1013C000807284F88531C4E90822C4E90A2284F8CD
:1013D000863184F8873184F8883105E7C3F1010349
:1013E00080F8603100E741F2341EA6F1020CA6F14C
:1013F0001500A6F11702BCFA8CFCB0FA80F0B2FA24
:1014000082F2A6F1180841F29A0141F2E603B8FA15
:1014100088F815F80E704FEA5C1C4009520985F8EF
:1014200094C96854EA544FEA5818002F40F0C0801D
:10143000182E40F08F81002141F20422564BA95012
:1014400003F18001002243F8042B8B42FAD103F10F
:101450002401002243F8042B8B42FAD103F124012A
:10146000002243F8042B8B42FAD141F2341C4FF096
:10147000010E4A4E4A4F0FCE0FC796E8030005F8FB
:101480000CE087E80300A7F11C0686E7A6F102013D
:10149000A6F11502A6F11703B1FA81F1B2FA82F2B0
:1014A000B3FA83F3A6F11808B8FA88F895F818E8A3
:1014B000490952095B0985F8781085F87E2785F877
:1014C000CA374FEA5818BEF1000F36D1182E40F037
:1014D00061810022334BC5F8E82803F18001002226
:1014E00043F8042B8B42FAD103F12401002243F884
:1014F000042B8B42FAD103F12401002243F8042B80
:101500008B42FAD14FF0010EDFF890C0A3F6DC0653
:10151000ECE60D2A00F2C7800132D2B20E2A08BFD3
:1015200009228CE60D2A00F2C780012B8ABFC2185F
:1015300090F8972192F8952181E61B4B06EB460C1B
:1015400003EBCC0C05F10C0EBCE80F00AEE80F006D
:101550009CE80300022E8EE8030085F818883FF40B
:10156000CEAE182E3FF4CBAE2B695A1005EB6300BC
:10157000DB0745BFAA58EB68EB68D3589847BEE62F
:10158000D8020020E07E0008DA020020740C00205F
:10159000F40B0020F60B00201414002010BD0008EE
:1015A000000C0020F80A0020D0BA000800BB000898
:1015B000874BDFF824C206EB460703EBC7070FCFC4
:1015C000ACE80F0097E80300022E8CE8030005F852
:1015D0000E8000F0BC80182E00F09880D5F82C39D1
:1015E0007C4E5A10D90706EB630045BFB258D5F8B8
:1015F0002839D5F82839D3589847CEE641F2341E19
:10160000A6F11507A6F11701B7FA87F7B1FA81F12C
:10161000A6F1180841F29A0041F2E602B8FA88F8F9
:1016200015F80E307F0949092F54A9544FEA58186C
:10163000002B7BD1182E3FF4FEAE654B664F06EBB8
:10164000460603EBC6060FCE0FC796E8030087E8F1
:101650000300C3E7A6F11501A6F11702B1FA81F163
:10166000B2FA82F2A6F11808B8FA88F895F8183894
:101670004909520985F87E1785F8CA274FEA581894
:1016800023BB182E3FF425AF514B06EB460603EB68
:10169000C60605F10C0C0FCEACE80F0096E803006F
:1016A0008CE8030060E7132A00F289800132D2B28D
:1016B000142A08BF0E22C2E5132A63D8012B8ABF61
:1016C000C21890F8992192F89721B8E5404B06EBA3
:1016D000460C03EBCC0C05F10C0EBCE80F00AEE899
:1016E0000F009CE8030085F818888EE8030038E7AF
:1016F000DFF8E8E0A6F59E7CBEE80F00ACE80F003E
:101700009EE803008CE8030086F8D076314E44E66C
:10171000DFF8C8E0A3F59E76BEE80F000FC69EE88E
:10172000030085F818C886E80300E8E5284BDFF8D1
:10173000A8C006EB460703EBC7070FCFACE80F00C6
:1017400097E8030005F80E808CE8030043E7ACF14E
:101750001C0622E61E4B06EB460CDFF87C8003EBF2
:10176000CC0CBCE80F00A8E80F009CE80300022E98
:1017700088E8030005F80E7008BFA8F11C067FF486
:101780002DAF0AE6012B8ABFC21890F8912192F87A
:101790008F2154E50E4B06EB460C03EBCC0C05F108
:1017A0000C08BCE80F00A8E80F009CE80300022E1C
:1017B00088E8030085F818E87FF4D6AE9FE5162A7E
:1017C0003FF63DAD0132D2B2172A08BF142236E5EA
:1017D000D0BA0008F40B0020000C002000BB000869
:1017E0002DE9F84390F8903104460D46002B40F067
:1017F000958090F86031012B00F0B08033D8714EA5
:101800008A78336A49685F1006EB630006EB420290
:10181000DB0748BFF36951804ABFF259F369D358D7
:10182000694932789847D6F83C39AA786868674998
:1018300006EB4202DF07A2F81E094FEA630201EB42
:10184000630040F1A4805258D6F83839D35896F83E
:101850001C295F49984768886B6804441B1284F808
:101860007C31BDE8F8839A1ED3B2012BF9D840F63B
:101870001C116E88D5F804C05FFA86F808EB830364
:10188000DBB2C71897F87CE1CCF30F23AEEB030073
:1018900000B20028B8BFA3EB0E0094F86E3101FB34
:1018A00002F1B8BF00B22BB1264496F88531002B67
:1018B00000F0838040F61C1E40F28E43414E03FB35
:1018C00002830EFB026EDEF8208006EB430301EB81
:1018D000680918F0010FA3F802C01CBFDEF81C3025
:1018E00056F809C001F1020118BF5CF8038040F608
:1018F0001C1303FB02F306EB0900F25C08BFDEF8E1
:101900001C803144C04701226B681B1287F87C3170
:101910006888044484F88521BDE8F8834B884A68C8
:101920000344121283F87C2190F87D3190F87C21D9
:10193000803B803A5B10D0F88C1103EBC2035B4212
:101940000B8090F87F3190F87E21803B5B10803ACD
:1019500003EBC2035B424B80BDE8F8834B88194E12
:10196000012B17D9023B4868D6F83C29DBB206EBBD
:10197000430306F61C11A3F81E09531001EB620085
:10198000D20704D55A58D6F83839D3585FE7D6F875
:1019900038395CE7326A496806EB43035980D1075E
:1019A0004FEA620306EB620045BFF258F369F36940
:1019B000D3580549327898474DE702283FF751AF91
:1019C00078E700BFD8020020DA020020F40B0020E4
:1019D000F60B00202DE9F0418046002682B000F58C
:1019E000AC77051F55F8044F37F8021B2B692A6A9C
:1019F000C4EBC4040C44E410D01884426946A3EB41
:101A000002032C6002DA9C4200DD42B94046ADF888
:101A100002600194FFF7E4FE40232C612B62013643
:101A2000042EDFD102B0BDE8F08100BF30B5D0F8A0
:101A30004C31D0F8482104469B1ADA0683B02BD0EB
:101A40006D4607E01AB3D4F84C31D4F848219B1AFC
:101A5000DB0621D0D4F8483104EBC302D2E91201ED
:101A600085E803009DF80020013303F01F03042ADA
:101A7000C4F84831E6D1019BCBB9BDF80230022B46
:101A80001AD0032BDFD1012384F84130DBE729464C
:101A90002046FFF7A5FED6E7094A616C13685B1A7A
:101AA000B3F57A7F84BF1368636403B030BD294601
:101AB0002046FFF741FBC6E7012384F84030C2E728
:101AC00008170020012AF0B425D0012500244FF486
:101AD000817603238A88B1F800C04F88C9882A41DB
:101AE00002850187144A1549A0F834C0C786448589
:101AF0000466A0F8446080F846504162C265B0F9BF
:101B00004C209A4205DD0023A0F84C304365A0F834
:101B10005030F0BC704700224FF4817402230E88CD
:101B20004D88064902858686C5860266A0F844402F
:101B3000C3654162E3E700BF030002000000FF7FCE
:101B400010B440F6FF72282400230549C0F87444FD
:101B5000C0F87C1410BCC0F87824C0F880347047FA
:101B600000C0FF3F002B42D0F0B5D0F874C4D0F8CD
:101B700080740B4411E0744534DD47F6FF74D0F8EF
:101B800078642D136D4206FB05F5C0F888E4C0F8B3
:101B90008454994222F8024B23D011F8016BD0F8FB
:101BA0008444B6073D4656BF2546D0F87C44D0F85D
:101BB0008844A5EB0C052E132C19DFF834E0C6F190
:101BC0000006C0F88454D6D50024D0F87854994241
:101BD00005FB06F5C0F88844C0F8845422F8024B8F
:101BE000DBD1F0BDC0F8884444F3CF34D1E770476F
:101BF0000080FF3F00230422A0F88E34A0F88C243C
:101C0000A0F89034A0F89234A0F8943480F8963478
:101C1000704700BF8BB370B40B4411F8016B90F8A0
:101C20008D44B5070CD5013490F89654E4B280F891
:101C30008D442DB100252C4680F8965480F88D54A3
:101C400090F88C54022D04D9B60644BF012680F8C2
:101C50009664A54203D800252C4680F88D5400EBED
:101C60004404B4F98E44994204EB84044FEAE4043A
:101C700022F8024BD1D170BC70477047012AF0B4F2
:101C80002ED0002447F6FF7604238A880D884F88DB
:101C9000C9885210A0F8B024A0F8BC541A4AA0F881
:101CA000C054A0F8C214194D1949A0F8BE74A0F888
:101CB000B264A0F8B444C0F8E844C0F8AC54C0F82A
:101CC000CC14C0F8E424B0F9D4249A4206DD0023F1
:101CD000A0F8D434C0F8DC34A0F8D834F0BC704795
:101CE000002202230D884C880849A0F8B024A0F8EF
:101CF000BC54A0F8BE44A0F8CC24C0F8E824C0F836
:101D0000E434C0F8AC14DEE7040002000000FF7FFA
:101D100002010201012A2DE9F04131D003244FF0E4
:101D2000000C40F2022702264FF4403522468B88F1
:101D3000B1F800805B10B1F802E0C988A0F8F43473
:101D40001B4BA0F80085A0F802E5A0F80415C0F828
:101D50002845A0F8F6C4A0F8107580F81265C0F800
:101D60002C55C0F8F034B0F91835934206DD002345
:101D7000A0F81835C0F82035A0F81C35BDE8F08172
:101D8000002640F2022502224FF400340B884988D5
:101D9000A0F80035064BA0F8F464A0F80215A0F8EE
:101DA0001055C0F82825C0F82C45C0F8F034DAE703
:101DB0000000FF7F012A2DE9F04131D003240126E4
:101DC0004FF0000C40F202274FF4003522468B887A
:101DD000B1F800803341B1F802E0C988A0F8383585
:101DE0001B4BA0F84485A0F846E5A0F84815C0F8BC
:101DF0006C45A0F83AC5A0F8547580F85665C0F84F
:101E00007055C0F83435B0F95C35934206DD0023D7
:101E1000A0F85C35C0F86435A0F86035BDE8F08105
:101E2000002640F2022502224FF400340B88498834
:101E3000A0F84435064BA0F83865A0F84615A0F880
:101E40005455C0F86C25C0F87045C0F83435DAE751
:101E50000000FF7F012A4FF00003F0B42FD04FF4B1
:101E600081770226CA880D884C88B1F804C0A0F892
:101E7000DC25214AA0F88C35A0F8DAC5A0F87C351D
:101E8000A0F89855A0F89A45A0F8A855A0F8AA453A
:101E9000C0F8D435A0F8B875C0F8D065C0F888256A
:101EA000C0F87825B0F9C035022B06DD0023A0F874
:101EB000C035C0F8C835A0F8C435F0BC70474FF441
:101EC000817502240A884988A0F89825A0F8A825D9
:101ED000094AA0F88C35A0F87C35A0F89A15A0F82E
:101EE000AA15C0F8D435A0F8B855C0F8D045C0F848
:101EF0008825C0F87825D5E70000FF7FF0B40125DC
:101F0000002208270C490D4E0B680D4CC0F82477B1
:101F100006FB034303EA0504C0F8285780F830475E
:101F20000B60C0F82C3780F83127A0F8382780F8EC
:101F30003A27F0BC704700BFD40000200D6619009E
:101F40005FF36E3C002B00F08D80F0B50B4465E034
:101F500090F83A47B0F828570134E4B2AC4280F820
:101F60003A475FDB0024B0F82477D0F82C571F2FB6
:101F700080F83A4705F0010605D825FA07F404F081
:101F8000010480F8314701246D08002E5CD07E1ECC
:101F900004FA06F635431F2F4BD890F83147002C32
:101FA00058D045F0004525FA07F404F0010405F087
:101FB000010C80F8314780F830C76C08BCF1000F85
:101FC0003FD034431F2FC0F82C4707D890F8315723
:101FD000002D42D044F00044C0F82C47224EDFF8D8
:101FE0008CE03568DFF888C0B0F826770EFB05C5B1
:101FF000B7EB154F3560B0F82A5784BF84F0010461
:10200000C0F82C47AD12E4B205FB04F59942C0F8C4
:102010003447A0F8385722F8025B09D011F8014B79
:10202000A40795D4B0F93857994222F8025BF5D14C
:10203000F0BD05F0010C80F830C76C08BCF1000F52
:10204000BFD124EA0604BDE77E1E04FA06F625EA9F
:102050000605A0E725F00045A5E724F00044C0F8F8
:102060002C47BBE7704700BFD40000200D66190065
:102070005FF36E3C00F23E7200F24E71002322F8D4
:10208000023B9142FAD1082280F84E37A0F83C2753
:10209000704700BF6BB370B40B4411F8016B90F83C
:1020A0003D47B5070CD5013490F84E57E4B280F89F
:1020B0003D472DB100252C4680F84E5780F83D57FE
:1020C00090F83C57042D04D9B60644BF012680F889
:1020D0004E67A54203D800252C4680F83D5700EBFB
:1020E0004404B4F93E47994222F8024BD5D170BC62
:1020F0007047704700F5FF6004F00AB900F5FF6013
:1021000004F0BAB800F2A47004F054B800F2A4705D
:1021100003F0B2BF00F5EA6003F040BF00F5EA60EB
:1021200003F09CBE00F5CB6001F064BF00F5CB600E
:1021300001F006BF00F5BC6002F0B2BE00F5BC6065
:1021400002F076BE00F5AF6004F004BD00F5AF60AC
:1021500004F0DEBC00F59E6004F036BC00F59E6025
:1021600004F044BB00F2345004F062BB00F234507F
:1021700004F008BC00F2AC4004F094BA00F2AC40A9
:1021800004F06EBA00F5936004F0A4BF00F593600C
:1021900004F094BF00F5856004F0A4BE00F58560EE
:1021A00004F088BE00F5477004F0CABD00F5477022
:1021B00004F0AEBD012A4BD00B88B3F5804F33D964
:1021C000B3F5004F8EBF00221A11C2F50062A0F8CD
:1021D000F62203EBC3039B0903F54063A0F8F83232
:1021E0004B889B1003EB43039B10A0F8FA328B88BB
:1021F0005A109B1002F5804203F50053A0F8FC2210
:10220000A0F8FE32B1F90620CB88002A11DB0021AC
:10221000C3F5FF437F3303FB03F3C3F38F32A0F80F
:102220000013A0F8022370474FF48062A0F8F62252
:10223000CFE70022A3F5004303FB03F3C3F34D43B1
:1022400003EB830399B2A0F80013A0F802237047B0
:102250004A8800F53D70098802F08CBA00F53D709F
:1022600002F016BB00F53D7002F07CBA00F5257057
:1022700001F0ACB900F5257001F092B900F5EC70F1
:1022800001F09CBB00F5EC7001F048BB00F5B870A4
:1022900002F07ABC00F5B87002F042BC683003F07E
:1022A00007BD00BF683003F0C5BC00BF243004F098
:1022B00033B900BF243004F00BB900BF012AF0B4D9
:1022C00030D00124CB884A88C3F57F43FF3303FB1A
:1022D00003F702FB02F68D880A8805FB05F53F0C23
:1022E00003FB07F3310C01FB01F6A2F5004212B229
:1022F000A90CC2EBC2029B0C121201EB4101360E7B
:10230000C3F5FF4302F5786201F50071C0F8B461CE
:1023100080F8AC41C0F8CC21A0F8B031C0F8D011A1
:10232000F0BC70474FF4786523244E880B88C6F5BF
:102330007F41FF3101FB01F65B1003F50053360CC2
:1023400003FB03F301FB06F19B0C03EB4303890C36
:1023500003F50073C1F5FF41C0F8CC51C0F8B4419A
:10236000C0F8D03180F8AC21A0F8B011F0BC7047B3
:10237000012A4FF0000330B431D04FF478620124C9
:102380002325C0F84C364B88C0F83C26C3F57F4364
:10239000FF3303FB03F2120C03FB02F20B88920CD7
:1023A000C2F5FF42A0F8202623414A8803F50053D6
:1023B00003FB03F3A0F850268A889B0CA0F848265C
:1023C000CA8803EB430303F50073C0F8245680F872
:1023D0001C46C0F84036A0F84A2630BC70474FF47F
:1023E00078642325C0F84C364B88C0F83C46C3F5CA
:1023F0007F43FF3303FB03F4240C03FB04F40B883B
:10240000A40C5B1003F5005303FB03F3C4F5FF4476
:10241000A0F820469B0C498803EB430303F50073A7
:10242000C0F82456A0F85016C0F8403680F81C2694
:1024300030BC70470B88012AC3F5FF4303F17F03CB
:102440004FEAA31330B490F89422C3F5525326D028
:10245000FAB140F6FF75A0F896320B8880F8942206
:10246000A0F8E832A0F8EA324A88D41204F6E17300
:102470001F2C08BF2B4630BCA0F8EC22A0F8EE229F
:102480008A88C0F8B832A0F8E022CB88A0F8E232FF
:102490007047B0F99622D21A18BF0122D9E7CAB103
:1024A00040F6FF74A0F896320B8880F89422A0F8CA
:1024B000E832A0F8EA324A88D11201F6E1731F2906
:1024C00008BF234630BCA0F8EC22A0F8EE22C0F8EA
:1024D000B8327047B0F99622D21A18BF0122DFE74E
:1024E000012AF0B429D040F6FF760A88254C131251
:1024F000A51C35F8135034F813404B88D2B22D1B6D
:10250000C3F57F4302FB05F5FF33CA8803FB03F3E2
:102510008988A2F5004204EB252412B2A4B2A6EBEE
:10252000135312018903C0F87444C0F87834C0F81A
:102530008024C0F87C14F0BC704740F6FF7500267C
:102540000C88104A4B882712911C31F8171032F86A
:102550001720C3F57F43891AE4B204FB01F4FF336B
:1025600003FB03F302EB24220749A5EB135392B2BA
:10257000C0F88064C0F87834C0F87424C0F87C14C3
:10258000F0BC7047107F000800C0FF3F012A10B563
:1025900090F8783004462BD09BB18A880888A2F541
:1025A00000424B88A4F86C20CA8803EB8303A2F591
:1025B0000042401012041B14C4E91C2084F86A3045
:1025C00010BD4FF4A0420B884267A0F868308A889B
:1025D0004B88A2F50042A0F86C20CA8803EB830365
:1025E000A2F5004212041B14026780F86A3010BD85
:1025F00083B10B884A8803EB83031B14A2F50042C6
:1026000080F86A30A0F86C2000224FF4A043C4E99F
:102610001C2310BD0B8820F8683F498803F036FB67
:10262000F2E700BF012A70B504460D4600F5EA60E6
:1026300021D047F6FF760B88A4F850374988C4F8B4
:102640005C6703F01BFCAB88A4F86837B5F906207B
:10265000EB88002A07DB0022F61A7600A4F86A67E6
:10266000A4F86C2770BD43F6FF725E00A4F86A6799
:10267000A4F86C2770BD0B88A4F85037498803F084
:10268000FDFB002247F6FF73C4F85827C4F85C37F7
:1026900070BD00BF38B504460B88012AA4F8A437E2
:1026A0000D4600F2A47049881BD003F0F5FC002110
:1026B000AA8847F6FF73A4F8B427B5F90600C4F852
:1026C000AC178842B8BF43F6FF71EA88C4F8B03748
:1026D000A6BF9B1A5B005300A4F8B637A4F8B8173E
:1026E00038BD03F0D9FC002247F6FF73C4F8AC27CD
:1026F000C4F8B03738BD00BF70B5012A00F5FF66D9
:1027000004460D463046098810D003F0F9FD3046E6
:10271000698803F0E3FD47F6FF72AB88C4F804282C
:10272000A4F80838EB88A4F80A3870BD03F0E8FD77
:102730003046698803F0D2FD47F6FF73C4F80438C9
:1027400070BD00BF0B88012AA3F50043B0F98E24A9
:102750001BB225D09A4218BFA0F88E344B88B0F92E
:102760009024A3F500431BB29A4218BFA0F89034FE
:102770008B88B0F99224A3F500431BB29A4218BF8C
:10278000A0F89234CB88B0F99424A3F500431BB28F
:102790009A4218BFA0F89434042380F88C34704710
:1027A0009A4218BFA0F88E344B88B0F99024A3F554
:1027B00000431BB29A4218BFA0F89034022380F85D
:1027C0008C347047012A2BD008220B88A3F50043D4
:1027D000A0F83E374B88A3F50043A0F840378B881C
:1027E000A3F50043A0F84237CB88A3F50043A0F837
:1027F00044370B88C3F50043A0F846374B88C3F530
:102800000043A0F848378B88C3F50043A0F84A3747
:10281000CB8880F83C27C3F50043A0F84C377047BD
:1028200004220B88A3F50043A0F83E374B88A3F59C
:102830000043A0F840370B88C3F50043A0F84237A7
:102840004B8880F83C27C3F50043A0F84437704715
:10285000012A0B8825D0B3F5784F28BF4FF6FF73B8
:1028600042F2914238BFDB08A0F826374B88A0F827
:102870002A378B88934208D80823A0F82437CB88BE
:102880005B130133A0F82837704744F623129342B4
:1028900013D946F6B552934213D81023A0F8243723
:1028A000EDE7B3F5784F2CBF4FF6FF73DB08A0F8C8
:1028B00026374B88A0F82A3770470C23A0F8243716
:1028C000DDE749F24822934207D94BF2E562934291
:1028D00007D81823A0F82437D1E71423A0F8243709
:1028E000CDE74DF66C32934294BF1C232023A0F811
:1028F0002437C4E7012A0FD00B88A0F81C334B887B
:102900005B10A0F81E338B885B10A0F82033CB88B7
:102910005B13A0F8223370470023A0F81C330B8808
:102920005B10A0F81E330B885B1003F50063A0F862
:1029300020334B885B13A0F822337047012A0DD057
:102940000B88A0F82A344B88A0F828348B885B10B9
:10295000A0F82C34CB88A0F82E3470474FF6FF73C4
:102960000022A0F82A340B88A0F828344B88A0F85D
:102970002E245B10A0F82C34704700BF0B88012A6E
:10298000A0F898344B88A0F89A341FBF8B88A0F821
:102990009C34CB88A0F89E34704700BF012AF0B465
:1029A0004DD00B8890F86822A3F500431BB2C3EB0F
:1029B000C303C3F30F2303F5D05503F5005403F508
:1029C0004853A0F82A52A0F84A421BB28AB3A0F892
:1029D0006A328B8847F248165B08B3F5E04F28BF90
:1029E0004FF4E04346F2847545F2F054012703F5B5
:1029F0000073B1F802C0A0F89032CB8880F868224A
:102A0000991306EB531201F6FC7105EB5313A0F872
:102A10002C22A4EB9C0204EB9C04C0E9A22480F8C5
:102A2000287280F84872C0F81812A0F84C32F0BC36
:102A30007047B0F96A22D21A18BF0122C7E74FF4D3
:102A4000D0524FF4005390F86842A0F82A22A0F820
:102A50004A3264B34FF4485547F2485246F684333D
:102A6000A0F86A52A0F82C22A0F84C324B8845F20C
:102A7000F0525B08B3F5E04F28BF4FF4E043012567
:102A800040F6FE76098803F50073A0F89032A2EBB9
:102A9000910302EB910280F8684280F8285280F896
:102AA0004852C0F81862C0E9A232F0BC7047B0F9D1
:102AB0006A42B4F5485418BF0124CBE70B88F0B440
:102AC000A3F500431BB2C3EBC303C3F30F2303F50A
:102AD000D05503F50054012A03F5485390F8E82631
:102AE000A0F8AA56A0F8CA461BB23ED0BAB347F225
:102AF0004854A0F8EA360B8846F6843CA3F5004318
:102B00001BB2A0F81C37A0F81E374B8843F2F057D1
:102B10005B08B3F5E04F28BF4FF4E043A0F8AC46A4
:102B200047F2F056012440F6FE7503F50073A0F855
:102B30001037A0F8CCC68B8880F8E826A0F81237AA
:102B4000CB88C0F80877C0F80C6780F8A84680F8F2
:102B5000C846C0F89856A0F81437F0BC7047B0F9D2
:102B6000EA26D21A18BF0122C1E78AB347F24855B4
:102B700046F68434A0F8EA360B88A0F8AC56A3F5E4
:102B800000431BB2A0F8CC46A0F81C37A0F81E37B3
:102B90004B880121CB40B3F5E04F28BF4FF4E04311
:102BA00040F6FE7643F2F05547F2F05403F5007319
:102BB000C0F89866C0F80857C0F80C4780F8E826B7
:102BC000A0F8103780F8A81680F8C816F0BC704737
:102BD000B0F9EA26D21A18BF0122C7E7F8B50024D7
:102BE0006B4F05460E4623463A4602E05B6852F8B4
:102BF000302005EB63005910DB0748BF6B5804F128
:102C0000010448BF9A589047624A04EB4400192CCB
:102C100002EBC003EAD1A6F10106B6FA86F605F585
:102C2000B87001F07DFF05F5EC7000F077FE7609D5
:102C300005F5257000F0B4FC85F8F06205F53D70EF
:102C400001F090FD0024282140F6FF72524BC5F898
:102C50007414C5F87824C5F87C3485F8F462C5F896
:102C6000804405F1680002F0E5FF05F1240003F05F
:102C70002FFC05F5477004F04BF805F5856004F06E
:102C800019F90423A5F88E44A5F89044A5F89244B8
:102C9000A5F8944485F89644A5F88C3405F593601E
:102CA00004F00CFA012108203C4ADFF800C1136847
:102CB0003B4E85F831470CFB0363A5F8384785F890
:102CC0003A4703EA0104C5F82C37C5F82817C5F8B8
:102CD000240785F8304705F2AC40136003F0C0FCD0
:102CE00005F59E6003F082FD05F2345003F04AFEC4
:102CF00005F5AF6003F00CFF05F5BC6002F098F835
:102D000005F5CB6001F01CF905F23E7305F24E7239
:102D1000002423F8024B9342FAD1082305F5EA6018
:102D2000A5F83C3785F84E4703F098F805F2A470F3
:102D300003F0A2F905F5FF6003F09EFA194A1A4B59
:102D400028466A61EB61C5E903742C8085F87840F8
:102D500085F87E4785F8CA4785F81848AC612C622B
:102D6000FFF7A8FA29462B6A5A1005EB6300DB0728
:102D700045BFAA58EB69EB69D35811F8022B984765
:102D80004FF400436B80AB80EB802B81F8BD00BF1C
:102D9000B5220008D0BA000800C0FF3FD4000020D0
:102DA0005FF36E3CAD220008C51A00080D661900DD
:102DB000FEE700BFFEE700BFFEE700BFFEE700BF83
:102DC000704700BF704700BF704700BF704700BF2B
:102DD0000148FDF723BA00BF6C150020554B1A8A35
:102DE000D20700D470474FF6FE722DE9F047524CDF
:102DF0001A822379002B6CD0002321884F48490A7E
:102E0000237104F029FE21884C48C1F3860104F0A7
:102E100025FE2379002B5AD0494B4A4A9B6891687A
:102E200083F40063C3F3C022474BCF0493F84100FF
:102E300093F8401058BF42F0020208B141F002017D
:102E4000424841EA0203056B426B6E1C032E4ED8CA
:102E50000663DFF8FCC0DE079CF8007007F001078E
:102E600053D4002F5ED1BE4602EB420605EB860628
:102E7000043630F816809CF801609B078CF80070CF
:102E8000A4F8008006F001064FEA420937D4002E6C
:102E900040D13746B0464A4405EB820A4FEAC109A1
:102EA0008B0009F008090AF1080100EBC2024EEAA2
:102EB000090E30F8110003F0080348EA0E0E3B43F8
:102EC000511902F805E08CF8016060800B71BDE8D3
:102ED000F087012361881948490A237104F0C0FD75
:102EE00061881648C1F3860104F0BCFD91E7466B8A
:102EF000EF1E013606F0010646630763A9E7AEB987
:102F000003274FF030083E46C5E747B94FF0030EA0
:102F10007746A9E704274FF040083E46BBE74FF04D
:102F2000010EA1E74FF0040E77469DE701274FF011
:102F30001008B0E7002C0140601500200008004098
:102F4000000C0140000801406C1500201C150020F9
:102F5000141500202DE9F04F8B46DFF8CC80DFF808
:102F6000C090074683B0A8F5BB7009EB4104FEF79B
:102F700031FD294ACA4692F8902100255B46274E2A
:102F8000002A40D140F61C122449019302FB05128D
:102F9000D2F818C007EB85011CF0010F4FEA6C0E48
:102FA00018BF526906EB6C0016BF56F80EC0D2F877
:102FB00014B05CF802B01A4AD847019BBAF8002056
:102FC00028F8022B9BB14946164A07F1080032F94E
:102FD00015C000EBC50031F9022BC2F5FF427F326C
:102FE000624482F31002A14220F8022BF3D106F6CC
:102FF0001C1615B103B0BDE8F08F074A012592F801
:103000009021002ABED05445D8D0054A002122F88C
:10301000021B9442FAD1D1E76C150020D80200209F
:103020005815002010150020E21600202DE9F0416F
:1030300000250126344F88B02A46384640F2ED215B
:1030400000F0D6F8314B32481D6000F08FFA314A5B
:10305000314B6946314800925D631D639E6304F005
:1030600021FE7F232E4C0293204601958DF80C50B3
:1030700004F0C6FC204601A904F088FB294B204639
:1030800004A90493ADF81650ADF8185004F0A2FB53
:103090002046082104F0BCFC204604A904F0DAFB19
:1030A0002046082104F0BCFC204604A904F016FCCC
:1030B0002046082104F0BEFC204604A904F052FC7E
:1030C0002046082104F0BEFC31462046164C04F090
:1030D0007FFCDFF86080154B20461D7100F04EF834
:1030E00029464046FFF77AFD314608F61C10FFF7E7
:1030F00075FD21460E48FDF70FFF384600F0C0F879
:1031000008B0BDE8F08100BF681500200817002056
:1031100018150020C00303181C150020000C0140E6
:10312000000800406000010010150020601500201C
:103130006C150020D802002008B5FFF777FF0D4C72
:103140000D48FEF773FCA26B636B9A42F8D0A06B3C
:10315000042100EB400004EBC000FFF7FBFEA36B73
:10316000013303F00103A363A26B636B9A42EED1B8
:10317000E6E700BF1C1500206C1500200246014642
:10318000002330B4094D0A4C2D6842F8045B2488B2
:1031900011F8015B2B448A429BB2F9D19C4202D0C8
:1031A00000230380438030BC704700BF00BC01088F
:1031B00004BC010838B50546044604F039FA0A484B
:1031C00004F076FA55F8041B074804F093FA00213E
:1031D00014F8013B1944A54289B2F9D1BDE8384041
:1031E000024804F0B7BA00BF00BC010804BC0108E3
:1031F00030B5154685B00C4604F0A8F89DBB0121FA
:1032000044F61D2004F0F0F9012144F2060004F018
:10321000F7F90121084604F0DBF90121154804F013
:10322000A7FD4FF4404004F0C9F900231248ADF85F
:103230000A3001938DF80C30ADF8084004F0E0FB43
:1032400001A90D4804F0A2FA01210B4804F0C0FBCB
:103250004FF4A06004F00AFC084B6846009304F0A9
:103260000FFC05B030BD4FF480414FF0006004F01A
:1032700039FCC4E700013000002C014019000001B6
:1032800070B4F025002007240122064B064E0749A2
:103290005E6081F82350986011461C60044870BC41
:1032A00004F0A4BB10E000E03F19010000ED00E0D5
:1032B000002C014070B5204B88B069461F4C204857
:1032C000009304F0EFFC1F4B69462046009304F086
:1032D000E9FC1D4B6946204608250026009304F0B2
:1032E000E1FC3F23A4F584342046029301958DF838
:1032F0000C6004F085FB204601A904F047FA134B4B
:10330000204604A90493ADF81660ADF8186004F0E7
:10331000E5FA2946204604F08DFB204604A904F076
:1033200021FB2946204604F08DFB2046012104F0B4
:103330004FFB08B070BD00BFF0000210000C014050
:1033400000080140000402100300021860000100A0
:1033500038B50446184DC1782846890804F080FB2A
:10336000A1782846890804F07DFB62784FF48061DB
:10337000124804F0F7FC227805F582352846102122
:1033800002F0010204F0EEFC22782846202102F02F
:10339000020204F0E7FC22782846402102F00402F1
:1033A00004F0E0FC22782846BDE83840802102F095
:1033B000080204F0D7BC00BF00040040000C01402C
:1033C0004FF0FF3200B50B4B83B0026001A90A48F1
:1033D000019304F067FC094B01A90948019304F02B
:1033E00061FC084B084801A9019304F05BFC03B0A1
:1033F0005DF804FB10000248000C01400001024887
:10340000000801400060024800100140F8B510219A
:103410000446C678134804F09FFC760076B2064353
:103420004FF48071E6701048A57804F095FC6D00AB
:103430000E4F6DB205434FF40051A5703846267803
:1034400004F08AFC760076B206434FF48041384699
:103450002670657804F080FC6D006DB205436570E0
:10346000F8BD00BF000C0140000801400010014001
:10347000F0B5394B93B0064601A93848019304F0E2
:1034800011FC374803F0DEFF80234FF480714FF4C6
:10349000806000244FF40052042520270C93314B08
:1034A0000D910E9007A92E48CDE90F720793CDE933
:1034B00008640B9411940A9504F056F801212848E9
:1034C00004F072F8284804F017FB40F201164FF49C
:1034D00060224FF40063244802A9CDE9042302943A
:1034E0008DF81850ADF80C6004F03CFB0723012266
:1034F00003211D4804F08CFB0222072311461A48C1
:1035000004F086FB072303220121174804F080FB07
:103510002A4621460723144804F07AFB1248012169
:1035200004F044FB104804F055FB0F4804F058FB2E
:103530000028FAD10C4804F057FB0B4804F05AFB62
:103540000028FAD10121084804F03AFB012106487D
:1035500004F054FB13B0F0BD0F000100000801405F
:10356000080002404C2401400024014000B5084BF3
:1035700083B001A90748019304F094FB064B074868
:1035800001A9019304F08EFB03B05DF804FB00BFBA
:10359000001002480008014000080248000C0140E9
:1035A000002330B445F6C05101254FF4525440F683
:1035B000FD7205704480C0E9053330BCC0E90A33B0
:1035C0008180426283600362704700BF2DE9F04F43
:1035D0008DB001910592002B00F08981D0E911B8DE
:1035E000D0E90F9ED0E90DCA0D468268C46AEB1877
:1035F00046465D46C846D34607920094D0E9052169
:103600007446E2469146099361E0D0E90373079A54
:1036100082B1B9F5805FD4BF4FF0800CA9F5006C82
:10362000079AC4BF03EBEC034FEA291C0CFB02FC16
:1036300007EB6C2701FB07FE01FB03F309EBEE39F7
:10364000DFF8B8E2069AF145A2EBE33380F2278176
:10365000F146C0F814E0A3EB090307FB03FCA74BFA
:1036600001EBEC31994280F22481194600228361FA
:10367000009F029B03FB07F31F0B039B0097002B8C
:10368000C76209DD013B836233B9049B002BB8BFDD
:103690005B421F440097C76247F6FF77049B002BED
:1036A000009BB8BF5B421B1102FB03F29213BA42AC
:1036B000A8BF3A46914B9A42B8BF1A46059B23F8D9
:1036C000022B0593099A019B934200F01081019A05
:1036D00012F8013B01929A0740F1D98090F85C20E2
:1036E00012B99B0600F1D380DFF82CE2844FDEF89C
:1036F0000030844A07FB032CBCF1000FB0F8567071
:10370000B0F84C3080F2E98007EB9302B2F5803FCD
:103710004FEAA30300DBFA1A82F31002C2F5FF435B
:103720007F339B110778C3F5525392B203930292F1
:1037300027B9B0F90270FF1A18BF0127704A714B00
:10374000077002FB0C3C039BBCF1000F4380029B03
:10375000B0F85A20A0F85630CEF800C0B0F84E307D
:1037600080F2B08002EB930CBCF5803F4FEAA303DC
:1037700001DBA2EB030C40F6FF7E8CF3100C4FEA4A
:10378000EC2303F6E1739BB2B3F5805F08BF734689
:103790004FF4F0220293036A049201330393029BD5
:1037A000A0F85AC04362039B026383620BF1886BEB
:1037B0000BF5882B0AF1387A0BF2444B0AF5A33A41
:1037C00008F10D780AF5D77A08F59F3804F14F749F
:1037D0004FEADB7208F5BE7804F5414405F17C75CB
:1037E00002EBDA72E03405F5163506F1B36602EB4A
:1037F000D872BF3506F5CC3602EBD47206F29916B4
:1038000002EBD57202EBD67292B21303C0E90DAB94
:10381000C0E90F84C0E911560693002F3FF4F5AEBE
:10382000B0F902C0384FCCF3C71E37F81E70B0F99C
:103830000430364A0897364F32F81E20C3F3C71EAD
:1038400037F81E700A920B97324A0A9F32F81E20F0
:10385000BE46089F5B02AEEB070E0B9F03F47E4350
:10386000BF1A03FB07F302EB13434FF000024FEACA
:103870004C2C0CF47E4C0CFB0EFC089F9BB207EB0F
:103880001C4C1FFA8CF7C0E903730270BFE6436A51
:1038900007780293836A0393036B049386E7B9F571
:1038A000004FA9BF47F6FF72C0F8149091464261DD
:1038B000D1E6B1F5004F1DDB47F6FF7319461A46F6
:1038C0008361D5E6A2EB930CBCF5803F4FEAA303DE
:1038D000FFF451AF02EB030C4DE7A7EB9302B2F5F7
:1038E000803F4FEAA303FFF417AFFA1814E70DB0B7
:1038F000BDE8F08F816121EAE172B9E60180FFFF46
:103900000D6619005FF36E3C2C9900082E99000893
:103910001A83000818830008D400002000232DE932
:10392000F04F4FF4406501223024C0E90233C0E972
:103930000733C0E90C33C0E91133C0E91933C0E9DA
:103940002133C0E9293385610360C36383658367DD
:10395000C0F898304FF4C06B4FF4FA684FF4844EBF
:1039600047F2485C45F2F05146F6843740F6FE7661
:103970004FF4D05A4FF400594FF496654FF4485322
:10398000C0F804B0C562A0F89480A0F8B8E0A0F830
:1039900054C04461846280F8502080F8702080F820
:1039A0009020C0E92C11A0F874700664A0F852A011
:1039B000A0F87290A0F89230BDE8F08F2DE9F04F9A
:1039C00099B007910992002B00F0AD82D0E921ABAC
:1039D0004268066A1592144A06961268C6680A92E8
:1039E000826903961492826D466B0E92C26A856E4E
:1039F0001692826FCB181092D0F89820D1460F9271
:103A0000026C1792D0F8B0201192D0F8B420129224
:103A1000426E0292D0E929240596866C924604965D
:103A20001393019451E100BFD4000020826BC3695D
:103A30000D92426CD0F824C00C92C26C8668076963
:103A4000016B0892039A159C002E04FB02F24FEAC8
:103A5000123214460392C2600ADD013E86603EB90E
:103A6000264687EAE772A2EBE77216440396C66021
:103A7000002FB8BF039A149CB8BF5642069AA8BF3D
:103A8000039E04FB02F2002B4FEA123206920262FE
:103A900040F32D82013BC361002B40F038828CEA59
:103AA000EC73A3EBEC731A44BCF1000F06920262B4
:103AB000C0F23E82069B1E4490F85030002B40F02E
:103AC000A981D0E917270E9B7BB1029B1C46B3F559
:103AD000805FD1BF8023A3F5006307EBE3072311C9
:103AE0000E9C03FB04F302EB632205FB02F3029C32
:103AF00005FB07F7DFF8FCC204EBE33363450293F1
:103B0000A6EBE73780F26D81C0F864C0CDF808C03D
:103B1000029BFF1A02FB07F2B64B05EBE2359D4212
:103B200080F256811D468366059B169A002902FB8A
:103B300003F34FEA133205EB2613059242630B930E
:103B400040F3CA8101390163002940F0DB810D99FE
:103B50000B460029B8BF4B421A4400290592426324
:103B6000C0F2E481059B90F87020002A40F0838128
:103B7000D0E91F16109A7AB1B9F5805FD4BF8022C0
:103B8000A9F50062109CC4BF06EBE2064FEA2912B9
:103B900002FB04F201EB62210BFB01F20BFB06F6C8
:103BA000944F09EBE239B945A3EBE63680F2058183
:103BB000B946C0F88470A6EB090601FB06F18D4AF0
:103BC0000BEBE13B934580F2ED809346C0F88820F3
:103BD0000A9C8949894A0BEB231301FB04221146F5
:103BE000874C0A9290F8902021600F14002A40F030
:103BF000A880D0E927620F9979B1BAF5805FD4BF68
:103C00008021AAF500610F9CC4BF02EBE1024FEADC
:103C10002A1101FB04F106EB6126019C214601FB00
:103C200006F104FB02F20AEBE13A7249A7EBE23239
:103C30008A457BDA8A46C0F8A410A2EB0A0206FB8A
:103C400002F601996B4A01EBE6319142019163DA88
:103C5000C0F8A8200192049A179901FB02F2110BF7
:103C60000C9A0491002A816409DD013A426432B958
:103C7000089A002AB8BF524211440491816447F661
:103C8000FF71129C089A03FB04F30B9E119C002AFF
:103C9000049A06FB04F6019CB8BF524204FB02F2F0
:103CA000DB1303EBE63303EBE2328A42A8BF0A469A
:103CB000504B9342B8BF1346099A22F8023B09922F
:103CC000139B079A934200F02E81079A12F8013B4A
:103CD0009B0707927FF5AAAE4FF4F02E43F23338DC
:103CE000C46B066801344369816A464A0C94446493
:103CF000B0F8B84001360133013177469446CDF82B
:103D000034808660C3610163C0F810E0C0F8388079
:103D100008944262C46495E6019AB2F5004FA4BFCC
:103D200047F6FF720192C0F8A82094E7BAF5004F59
:103D3000A9BF47F6FF71C0F8A4A08A46C0F8A41036
:103D40007BE7B0F992603049C6F3C71C01F1020865
:103D500031F81C1038F81CC07602ACEB010C06F4EC
:103D60007E4606FB0CF601EB16464FF00001B0F95B
:103D70009420DFF89CE0254CC2F3C7183EF818E009
:103D800034F81880520202F47E42A8EB0E0802FBBF
:103D900008F20EEB1242B6B292B2C0E9276280F886
:103DA000901028E7BBF5004FA9BF47F6FF72C0F897
:103DB00088B09346C0F888200AE7B9F5004FA9BF3C
:103DC00047F6FF72C0F884909146C0F88420F2E66E
:103DD000B5F5004FA9BF47F6FF7385661D4683669C
:103DE000A2E6029BB3F5004FA4BF47F6FF73029310
:103DF00043668DE60180FFFF0D6619005FF36E3CA0
:103E0000D40000200080FFFF2C9900081A830008CE
:103E100018830008B0F95220DFF820E1B0F954709F
:103E2000C2F3C71C0EF10208424B434C3EF81CE0A3
:103E300038F81CC0C7F3C71833F8183034F81880A6
:103E40007F02A8EB030807F47E4707FB08F703EBA4
:103E500017474FF00003520202F47E42ACEB0E0C07
:103E600002FB0CF20EEB124292B2BFB2C0E917276E
:103E700080F8503027E64FF00008B0F97210DFF8F4
:103E8000BCC0B0F97460C1F3C7170CF1020E294A27
:103E9000294C3CF817C03EF81770C6F3C71E32F81D
:103EA0001E2034F81EE04902760201F47E41A7EBA1
:103EB0000C0706F47E46AEEB020E01FB07F106FB93
:103EC0000EF60CEB114102EB164689B2B6B2C0E910
:103ED0001F1680F870804DE60D9B002B1DDB059BA7
:103EE00000293FF440AE03F54C5333333BE6BCF1BD
:103EF000000F15DB069A1644002B3FF4DDAD06F6E5
:103F00003D26D9E50D9B002B07DB059BEBE7BCF1BC
:103F1000000F05DB069B1E44F1E7059B5B42DFE7D4
:103F2000069A5242E7E719B0BDE8F08F53421AE60D
:103F3000B61AC1E5188300081A8300082C990008F6
:103F40002DE9F04F4FF4C06545604FF44065002304
:103F50000122302485614FF4FA684FF4844E47F211
:103F6000485C45F2F0514FF49665C0E90233C0E970
:103F70000733C0E90C33C0E91133C0E91933C0E994
:103F80002133C0E929330360C36383658367C0F8C5
:103F90009830C562A0F89480A0F8B8E0A0F854C0AA
:103FA0004461846280F8502080F8702080F890206E
:103FB000C0E92C11C0F8C43040F6FE7346F6843BCD
:103FC0004FF4D05A4FF400594FF448574FF6FF764C
:103FD000036448F20003A0F874B0A0F852A0A0F85F
:103FE0007290A0F89270C0F8C060A0F8C830BDE828
:103FF000F08F00BF2DE9F04F9BB006910D92002B82
:1040000000F0AD8182464268DAE929451892BD4A3E
:10401000A1461268DAF884600792826901961792C5
:10402000826DDAF820601392C26A05961992826F47
:10403000DAF80C601592D0F8982002961492D0E924
:10404000192090468346DAF83460CB180496DAF8E3
:104050004860DAF8887003961693069A12F8013BC6
:104060009C07069200F1228243F6FF74DAF8C03012
:10407000DAF8B02004EB630404EBA303DAF8384069
:1040800011931294DAF84040DAF8B4300B94DAF86D
:1040900044400A930F94DAF84C40DAF824300C9438
:1040A0009AF89040099208949AF870400E93DAF8C2
:1040B0001C20DAF80810DAF81000DAF830309AF834
:1040C00050C01094029E189C002904FB06F64FEA8B
:1040D00016360296CAF80C600BDD0139CAF80810D2
:1040E00039B980EAE071A1EBE0710E440296CAF89A
:1040F0000C600028B8BF0299179CB8BF48420599C8
:10410000A8BF029804FB01F1002A4FEA1131059182
:10411000CAF8201040F3C282013ACAF81C20002AD3
:1041200040F0C7820E9C2246002CB8BF6242114468
:10413000002C0591CAF82010C0F21083059A104493
:10414000BCF1000F40F06C82DAE91714139A7AB1CF
:10415000B8F5805FD4BF8022A8F50062139EC4BF6B
:1041600004EBE2044FEA281202FB06F201EB6221A3
:104170000BFB01F20BFB04F4634E08EBE238B04595
:10418000A0EBE43480F28781B046CAF86460A4EB07
:10419000080401FB04F15C4A0BEBE13B934580F220
:1041A0006F819346CAF86820049A1999002B01FB85
:1041B00002F20BEB20114FEA12320492CAF83420BB
:1041C0000E9140F36082013BCAF83030002B40F082
:1041D000768212990B460029B8BF4B421A44002937
:1041E0000492CAF83420C0F2BB820498109B002BC2
:1041F00040F01581DAE91F13159A7AB1019A144635
:10420000B2F5805FD1BF8022A2F5006203EBE2032A
:104210002211159C02FB04F201EB622107FB01F263
:10422000019E07FB03F3384C06EBE232A2420192F7
:10423000A0EBE33380F2E980CAF884400194019A4C
:104240009B1A01FB03F1304B07EBE1379F4280F2F1
:10425000D1801F46CAF888302C492D4A07EB20131D
:10426000079801FB0022274907920A601414089A54
:10427000002A40F08D80DAE92702149979B1B9F566
:10428000805FD4BF8021A9F50061149EC4BF02EBFA
:10429000E1024FEA291101FB06F100EB612005FB69
:1042A00000F105FB02F209EBE1391749A4EBE23218
:1042B000894562DA8946CAF8A410A2EB090200FB1C
:1042C00002F0114A05EBE03595424BDA1546CAF883
:1042D000A820039A0B9800FB02F00F9A010B002A0A
:1042E0000391CAF8481015DD561ECAF844608EB90D
:1042F0000C9A002AB8BF524211440391CAF84810E0
:1043000008E000BFD40000200180FFFF0D66190007
:104310005FF36E3C0A990C9A01FB03F10B46002AED
:104320000998039A0E99B8BF524200FB01F005FBB1
:1043300002F2DB1303EBE03303EBE233119A02FBEF
:1043400003F2131413F5004F0D9A08BF013322F83E
:10435000023B0D92169B069A93427FF47EAE1BB0F1
:10436000BDE8F08FB5F5004FA9BF47F6FF72CAF858
:10437000A8501546CAF8A820ABE7B9F5004FA9BF69
:1043800047F6FF71CAF8A4908946CAF8A41094E7CA
:10439000BAF99200CC49C0F3C71601F1020E31F808
:1043A00016103EF816604002761A00F47E4000FBBC
:1043B00006F001EB10404FF00001BAF99420DFF84D
:1043C00010C3C2F3C71E52020892C04A3CF81EC076
:1043D00032F81EE0089AAEEB0C0E02F47E4202FBAD
:1043E0000EF20CEB124280B292B2CAE927028AF8AE
:1043F000901042E7B7F5004FA9BF47F6FF73CAF820
:1044000088701F46CAF8883026E7019AB2F5004F37
:10441000A4BF47F6FF720192CAF884200FE74FF05D
:10442000000EBAF97210A84EBAF97430C1F3C7146D
:1044300006F1020C36F814603CF81440C3F3C71CB4
:104440005B021093A24AA14B32F81C2033F81CC027
:10445000109B490201F47E41A41B03F47E43ACEBA4
:10446000020C01FB04F103FB0CF306EB114102EB20
:10447000134389B29BB2CAE91F138AF870E0BBE606
:10448000BBF5004FA9BF47F6FF72CAF868B0934664
:10449000CAF8682088E6B8F5004FA9BF47F6FF7252
:1044A000CAF864809046CAF8642070E6894B8A494D
:1044B000079A4FF6FE7601FB02310029BAF9C64091
:1044C000BAF8BA3080F2168104EB930202F5FF408D
:1044D0007F30B0424FEAA30300D9E21A47F6FF73D8
:1044E0009A42A8BF1A467D4B9AF890409A42B8BFAC
:1044F0001A46C2EBC203C3F30F2303F5D050AAF848
:10450000520003F5005003F54853089412B2AAF87C
:1045100072001BB22CB9BAF99200C01A18BF012060
:1045200008906C486C4CAAF8923004FB0104BAF86D
:10453000BC00211400FB01F1BAF8C830089EAAF8AB
:10454000C620674A13EB21418AF8906007941460F3
:1045500000F1DC80B1F5803F80F2EA8045F2F05650
:1045600043F6FF74881300F6FC70C1F34F1380B25A
:1045700003F5E24204EB610403F5CF430B90A6EB95
:10458000A10004EBA10448320433099006EBA1001A
:10459000CAF8C01012B21BB211940A9089B2012657
:1045A000B44643F2333E4FF4F0204E4CAAF8C81004
:1045B0000E94099CDAF80010CAF8B040AAF854200A
:1045C0000A9CDAF81420AAF87430DAF8283031445A
:1045D000324433441096CAF8B4408AF850600B9CB9
:1045E0008AF87060DAF83C60CAF8404006EB0C04C8
:1045F0000F943C4ECAF84440BAF8B840CDF848E0B1
:10460000CAF80810CAF81C20CAF83030CAF81000DE
:10461000CAF838E00C94CAF82460CAF84C4051E556
:10462000BAF95210DFF8A0C0C1F3C716BAF9544066
:1046300049020CF1020E0E91254A24493CF816C09D
:104640003EF81660C4F3C71E32F81E2031F81EE093
:104650006402AEEB020E04F47E4404FB0EF402EBA3
:1046600014444FF000020E99A6EB0C0601F47E41B3
:1046700001FB06F10CEB114189B2A4B2CAE917148F
:104680008AF8502062E5129A002A2DDB0498002B4C
:104690003FF4ACAD00F54C503330A7E50E9900293E
:1046A00025DB05990844002A3FF44AAD00F63D2079
:1046B00046E50E9900291ADB059A1044F6E7129A8E
:1046C000002A11DB0498E5E72C9900081A830008FA
:1046D000188300085FF36E3C0D6619000180FFFF30
:1046E000D40000200080FFFF049A5042CFE70599D4
:1046F0004942D7E7A4EB930202F5FF407F30B04276
:104700004FEAA3037FF6EAAEE218E7E645F2F0537C
:104710000A93099343F6FF730021119340F6FC734B
:1047200047F248120B93CAF8C01046F2847336E77A
:104730004FF6FD7349F2EF52119341F2F1534FF6E8
:10474000FF70CDE9093240F6FF7301460B9347F63F
:10475000471246F68373CAF8C00020E7401AEFE418
:10476000504243E500224FF0FF334261C0E9063377
:10477000028270472DE9F047434B0578434C82B0E5
:10478000002D08BF2346EE464FEAA13C4FEA0C1528
:104790008C0003EB0C1C05F10E07AE1D05F1160194
:1047A000A4B2ACF102051F440CF1060C1E441944DE
:1047B00035F8028F36F8023F37F802AF31F8029F22
:1047C000AAEB080AA9EB030904FB0AFA04FB09F99E
:1047D00008EB2A4803EB29431FFA88F89BB2A3EBA6
:1047E000080302FB03F3AC4508EB23432EF8023B1E
:1047F000DED1BDF80030B3F5804F2CD84FF4806285
:104800004280BDF80220BDF80410BDF9065003EB4C
:10481000C30392104C109B0902EB4202891003F56E
:104820004063921004F5804401F50051002D83800F
:10483000C280BDF806300481418115DB0021C3F53B
:10484000FF437F3303FB03F3C3F38F328181C281C4
:1048500002B0BDE8F087B3F5004F8EBF00221A11F9
:10486000C2F500624280CCE70022A3F5004303FBBF
:1048700003F3C3F34D4303EB830399B28181C281F8
:1048800002B0BDE8F08700BF78BD000828BD000871
:104890002DE9F04F05894489974E4FEA252C2712C0
:1048A0000CF1010E56F82EE056F82CC007F1010865
:1048B00056F8277056F82860ACEB0E0EEDB205FBEB
:1048C0000EF5BE1BE4B204FB06F487B0CDE902127C
:1048D000ACEB15220192A7EB14220492D0F824E04D
:1048E000D0E90512D0E907C70092002B00F0FA804A
:1048F000DFF81C825C1E79E0049BC1880093C1EB49
:10490000813114F00303DDF804C07C4F4FEA2141EC
:1049100000F089807A4A71448B0D32F913500232CB
:1049200032F91330C1F38F125B1B02FB03F386894C
:1049300005EB23431AB24FF6FF739EB1DFF8D49113
:10494000DFF8D4A1D9F80050DFF8D0B19B1B0BFBE6
:1049500005A54FEA254A06FB0AF602FB0363C9F8E0
:1049600000501A14019B634500F2B3804FEA1C63A8
:104970005B009E1CCCF30F294FF6FF7538F803300F
:1049800038F80660F61A09FB06F603EB16439BB2ED
:10499000EB1A02FB03F3B0F80E901B14B9F1000FF1
:1049A0001CD0584A1E0406F100464FEA965A02F1FE
:1049B000020B32F91A203BF91AA0B609B6B2AAEBDB
:1049C000020A06FB0AFAA5EB090503FB05F502EB53
:1049D0002A4A0FFA8AFA09FB0A531B14039A013C6C
:1049E000038222F8023B631C03927BD0029A12F8E6
:1049F000013B02929A073FF57FAF009D049A3F4B1F
:104A0000521928BF4FF0FF3207F1441707F58847C6
:104A10009F42019B38BF4FF0FF379C4414F00303C3
:104A200000927FF477AF4FF6FF7943F6FF7A009A52
:104A3000354E120E3D0E36F812E036F8156038F895
:104A400012200596009E38F81550C6F30F2B059ED0
:104A5000AEEB020E0BFB0EFE761BC7F30F2B0BFB10
:104A600006F602EB1E4205EB1646B0F806E092B2DF
:104A7000A9EB0202B6B245880EFB02FEA9EB0609BD
:104A800005FB09F9B0F91060828802EBA61202EB6F
:104A90001E4202EBD93212B29245A8BF9246BAF535
:104AA000685A04D51AF5C06A03F10103FAD44FEA33
:104AB0002A16164D721C55F8222055F826500AF079
:104AC0000F0A521B0AFB02FA05EB2A1E2EFA03FEFE
:104AD00020E74FF6FF794FF400764FF4FF734FF065
:104AE000FF3C49E7009BC0E9087EC0E9063C416104
:104AF00007B0BDE8F08F00BF40A90008444444005F
:104B0000CCB20008248F00081681000848B10008C4
:104B100014810008D40000205FF36E3C0D6619007C
:104B20002DE9F047002340F6FD7A4FF484594FF009
:104B3000010840F60C5E4FF0300C4FF44067C02681
:104B40004FF4786547F281744FF44851FF22C0E971
:104B500005C7C0E90233C0E90733C0E90C33C0E937
:104B60001433C0F82CA0A0F83E9080F83C80C0F828
:104B700004E08662C565A0F84040016642640360B7
:104B80004366BDE8F08700BF2DE9F04F8BB000927F
:104B9000002B00F03E81D0E914744268D0F820A0C8
:104BA0000592C26ACB180692B0F85C20D3460792F1
:104BB000426C8A460292026ED0F864800392826947
:104BC000C5680892049328E017460265DB1B01FBC9
:104BD00003FC914B04EBEC349C4280F209811C46AF
:104BE000436547F6FF73019A03992244A2EB08023A
:104BF00001FB02F208EBE2384345A8BF4346864A70
:104C0000C0F864809342B8BF1346009A22F8023B72
:104C1000049B0092534500F0FC801AF8013B9B076F
:104C200000F1A980059B816803FB05F500294FEA87
:104C30001535C269D0F810C0D0F824E0036BC56008
:104C400008DD0139816029B98CEAEC71A1EBEC71C6
:104C50000D44C560BCF1000F80F2A980002AC5F1A7
:104C6000000140F0A880089A02FB0BF24FEA123BC9
:104C7000C0F820B0BEF1000FACBF5E46CBF100061D
:104C8000426B0E440699002B02FB01F24FEA1231EF
:104C9000416340F3B680013B0363002B40F0A380E7
:104CA000836B079A002BB8BF5B420B44436390F8B9
:104CB0003C3012B223B9B0F93E30934200F0A480E8
:104CC000564933110193B0F94030C287C2F3C71976
:104CD00001F1020C3CF819C031F81910C3F3C719DF
:104CE0005B020993DFF840E14D4B3EF819E033F8E1
:104CF0001990099B5202ACEB010C02F47E4203F4C2
:104D00007E43A9EB0E0902FB0CFC03FB09F301EB4C
:104D10001C4C0EEB13431FFA8CF11FFA83FC4FF06F
:104D20000003C0E9121C80F83C30029A72B1B7F55A
:104D3000805FD4BF8022A7F50062029BC4BF0CEB4A
:104D4000E20C3A1102FB03F201EB622104FB01F2D7
:104D500004FB0CF307EBE2372F4AA6EBE333974251
:104D6000FFF632AFB7F5004FA9BF47F6FF720765F0
:104D7000174602652AE744F2506E059B016803FB63
:104D800005F54269836A274E0131DFF8A0C02D0B7B
:104D9000013201330029C0F838E0C0E90215B646F7
:104DA000C2610363C0F810C046623FF74AAF002AF1
:104DB00029463FF458AF089E01F5804106FB0BFCE5
:104DC0004FEA1C3BC0F820B07FF754AF013AC261F4
:104DD000002A7FF44FAF8EEAEE72A2EBEE7293449C
:104DE000C0F820B046E7079B03F5086292B25EE781
:104DF000B4F5004FA9BF47F6FF7344651C464365F1
:104E0000EFE6F0D1079A52E733110193D0E9121C73
:104E10008BE70BB0BDE8F08F0180FFFF2C990008F5
:104E20001A8300083DCAFFFF1883000833330400CB
:104E30002DE9F04F002340F6FD7A4FF4845B4FF0EC
:104E4000010940F60C584FF0300E4FF4406CC0276B
:104E50004FF478664FF4004547F281744FF448519F
:104E6000FF22C0E905ECC0E90233C0E90733C0E91D
:104E70000C33C0E91433C0F82CA0A0F83EB080F881
:104E80003C90C0F804808762C6654567A0F8404042
:104E9000016642640360A0F86E304366BDE8F08F9F
:104EA0002DE9F04F8BB0CDE90012002B00F093817B
:104EB0000E4643F6FF71446FD0F820B0F31801EBB3
:104EC0006401059301EBA40304935B464268D0F8A8
:104ED00064E00692C26AD0F80C800792426C856941
:104EE0000292026EC3460392F046D0E914929E46A7
:104EF000089528E0A9460565A1EB090103FB01F32C
:104F0000B64902EBE3328A4280F2DA800A46416512
:104F1000039B1444A4EB080403FB04F4049B08EB78
:104F2000E43803FB08F31B14019913F5004F08BF85
:104F30000133C0F8648021F8023B0191009B059980
:104F40008B4200F04881009911F8013B9B070091CA
:104F500000F1BF80C36DD0F81CA081680669456A66
:104F600090F83CC0046B069F002907FB0BF74FEA43
:104F7000173BC0F80CB009DD0139816031B986EA10
:104F8000E671A1EBE6718B44C0F80CB00899002ED5
:104F900001FB0EF1ACBF5E46CBF100064FEA113EBD
:104FA000BAF1000FC0F820E00DD006F580460ADD0A
:104FB0000AF1FF31C16131B985EAE571A1EBE57113
:104FC0008E44C0F820E0002DACBF7546CEF1000540
:104FD000416B2E44079D002C01FB05F14FEA113176
:104FE000416340F3E080013C0463002C40F0E28028
:104FF000846B9BB2002CB8BF64420C4444631BB268
:10500000BCF1000F04D1B0F93E10994200F0DF80EE
:10501000734DC387C3F3C71CB0F940105B02AF1CCC
:105020000993DFF8D8A16F4B35F81C5037F81C7086
:10503000C1F3C71C3AF81CA033F81CC0099B7F1BA6
:1050400003F47E4303FB07F305EB13434FF0000526
:10505000490201F47E41ACEB0A0C01FB0CF10AEBB6
:1050600011419BB289B2C0E91231341180F83C5031
:10507000029D7DB1B9F5805FD4BF8025A9F500659B
:10508000029FC4BF01EBE5014FEA291505FB07F5B7
:1050900003EB652302FB03F502FB01F109EBE539A4
:1050A0004E4DA6EBE131A945FFF624AFB9F5004F0F
:1050B000A9BF47F6FF75C0F85090A94605651BE7E4
:1050C000B2F5004FA9BF47F6FF7342651A46436524
:1050D0001EE7454B454C1B6845494FF6FE7704FBE0
:1050E00003110029B0F96E60B0F8683064DBA6EBFC
:1050F000930404F5FF457F35BD424FEAA30300D971
:10510000F4184FF63777DFF8E4C0394DB0F86A305D
:105110000CFB01510D1403FB05F3B0F870C047F60A
:10512000FF760CEBA343BB42A8BF3B464FF6FF758F
:10513000B442A8BF3446002BACBF6B4085F00003DF
:105140004FF0010C03FB03FA4FEA1A4A03FB0AFA79
:1051500047694FEA9A4ACAF5FF4AA0F840A007EB10
:105160000C0A4FF001071D4D80F83C70AC42B8BFEF
:105170002C4644F250671C4BA0F86E401960C4EBFB
:10518000C4030168846A1B4E1B4D1B1203F5786330
:1051900061446444C3658160C0F81CA00463066177
:1051A00045628763DFE69BB23FF429AF03F50863EE
:1051B0009BB224E79BB2F9E706EB930404F5FF45A5
:1051C0007F35BD424FEAA3039BD9F41A99E7341106
:1051D000D0E912314CE70BB0BDE8F08F0180FFFF42
:1051E0002C9900081A830008D40000200D661900CD
:1051F0005FF36E3C333304003DCAFFFF18830008A1
:1052000070B42B4AD0F8E460911CB30D32F91350FE
:1052100031F91320C6F38F13521B03FB02F3B0F9CD
:10522000044005EB2340002C81B205B221DDC4EB24
:105230004413C4EBC323DB1303F5006305FB03F343
:105240001C4A03F10043980D961C32F9102036F9E0
:105250001000C3F38F13801A03FB00F302EB234308
:1052600018B2401B04FB00F070BC01EBE03000B250
:10527000704716F1804648BF6FEA46060E4B58BF8E
:10528000760060429A1CB40D33F9143032F91420C0
:10529000C6F38F16D21A06FB02F603EB264636B289
:1052A000751B00FB05F070BC01EBE03000B27047ED
:1052B000CCB2000820870008309B0008B0F9042019
:1052C000B0F9FC3030B4934238D0A2F500439BB221
:1052D000012B23D94FF00061C3F58035B1FBF3F406
:1052E000B1FBF5F1C0E93D141B04C0F8F030A0F8A3
:1052F000FC20D0F8E4209A4217D2D0F8F800120B24
:1053000000FB02F030BC0028B3BF47F6FF73C00BB0
:10531000A0F50040A3EBD03000B270474FF400611D
:105320004FF00064C0E93D14DEE7D0F8F400D31A72
:105330001B0B00FB03F000F10040E3E7D0F8F03076
:10534000D7E700BFB0F90420D0F8E83002F50042FA
:105350005B00B3EB024F4FEA024104D8CA439342C9
:105360008CBFDB430B4647F6FF71D0F8E400034ADD
:10537000984234BF08461046704700BF0180FFFFC7
:105380004FF6FF71B0F90430D0F8E42003F5004384
:10539000C3EB03131B1402339BB2581E002AB1FB4C
:1053A000F0F1B4BF6FEA42005000000C03FB00F0C4
:1053B000000C00FB01F0A0F5004000B2704700BFF8
:1053C000D0E939138B42F0B4D0E9402526D82E46D7
:1053D0001546761B4B0C06FB03F3B0F90420DB13D8
:1053E000002A28DB194C0F0EA01C30F8170034F8E7
:1053F0001740C1F30F21001B01FB00F104EB114129
:10540000C1F34E0106FB01F1C3EBE13102FB01F2F6
:10541000581900EBE23000B2F0BC70470C4A0D4E58
:1054200013680D4CC0F8005106FB03431E141360B3
:10543000C0F80461CDE702F5FF427F3203FB02F0C2
:1054400005EBE03000B2F0BC704700BF3CA700089D
:10545000D40000200D6619005FF36E3C70B42B4A37
:105460000669911CB30D32F9135031F91320C6F3BC
:105470008F13521B03FB02F3B0F9044005EB2340EA
:10548000002C81B205B221DDC4EB4413C4EBC3236D
:10549000DB1303F5006305FB03F31D4A03F100432F
:1054A000980D961C32F9102036F91000C3F38F13B3
:1054B000801A03FB00F302EB234318B2401B04FBEA
:1054C00000F070BC01EBE03000B2704716F180468E
:1054D00048BF6FEA46060F4B58BF760060429A1CE1
:1054E000B40D33F9143032F91420C6F38F16D21AE2
:1054F00006FB02F603EB264636B2751B00FB05F0F1
:1055000070BC01EBE03000B2704700BFCCB20008C5
:1055100020870008309B0008B0F90420B0F9403023
:1055200030B4934234D0A2F500439BB2012B20D972
:105530004FF00061C3F58035B1FBF3F4B1FBF5F139
:10554000C0E90E141B044363A0F8402002699A428C
:1055500016D2C06B120B00FB02F030BC0028B3BFA8
:1055600047F6FF73C00BA0F50040A3EBD03000B2AC
:1055700070474FF400614FF00064C0E90E14E1E79A
:10558000806BD31A1B0B00FB03F000F10040E4E733
:10559000436BDBE7B0F90420436902F500425B008E
:1055A000B3EB024F4FEA024104D8CA4393428CBF87
:1055B000DB430B4647F6FF710069034A984234BF4C
:1055C00008461046704700BF0180FFFF4FF6FF718D
:1055D000B0F90430026903F50043C3EB03131B1455
:1055E00002339BB2581E002AB1FBF0F1B4BF6FEA40
:1055F00042005000000C03FB00F0000C00FB01F027
:10560000A0F5004000B27047D0E904138B42F0B41B
:10561000D0E9112526D82E461546761B4B0C06FBE5
:1056200003F3B0F90420DB13002A26DD184C0F0E1B
:10563000A01C30F8170034F81740C1F30F21001BED
:1056400001FB00F104EB1141C1F34E0106FB01F136
:10565000C3EBE13102FB01F2581900EBE23000B27A
:10566000F0BC70470B4A0C4E13680C4C456406FBAB
:1056700003431E1413608664CFE702F5FF427F32B6
:1056800003FB02F005EBE03000B2F0BC704700BF56
:105690003CA70008D40000200D6619005FF36E3CA3
:1056A0001C49836A70B49A0D8D1C31F9124035F98A
:1056B0001210C3F38F13091BB0F9042003FB01F18F
:1056C000C2EB4213C2EBC32304EB2141DB130CB248
:1056D00003F5006304FB03F30F4803F100439D0D42
:1056E000861C30F9150036F91550C3F38F132D1AA7
:1056F00003FB05F302F5FF4200EB23407F3200B2CB
:10570000001B521002FB00F270BC89B201EBE232C6
:1057100010B27047CCB2000820870008836A1B4A89
:1057200070B4990D941C34F9114032F91120C3F36F
:105730008F1113F1804348BF6FEA4303A4EB0204C7
:1057400001FB04F102EB214294B211B2104A58BF9E
:105750005B009E0D951C35F9165032F91620C3F3E7
:105760008F13AD1A03FB05F3B0F9040002EB2343DA
:1057700000F5FF407F301BB240105B1A00FB03F3C3
:1057800004EBE33000B270BC704700BFCCB200083D
:10579000309B00081C49836A70B49A0D8D1C31F946
:1057A000124035F91210C3F38F13091BB0F904200E
:1057B00003FB01F1C2EB4213C2EBC32304EB214113
:1057C000DB130CB203F5006304FB03F30F4803F192
:1057D00000439D0D861C30F9150036F91550C3F3B2
:1057E0008F132D1A03FB05F302F5FF4200EB234054
:1057F0007F3200B2001B521002FB00F270BC89B273
:1058000001EBE23210B27047CCB20008248F0008DE
:10581000B0F90420B0F9403030B4934234D0A2F54E
:1058200000439BB2012B20D94FF00061C3F58035B6
:10583000B1FBF3F4B1FBF5F1C0E90E141B044363B3
:10584000A0F84020826A9A4216D2C06B120B00FB6D
:1058500002F030BC0028B3BF47F6FF73C00BA0F5C1
:105860000040A3EBD03000B270474FF400614FF01E
:105870000064C0E90E14E1E7806BD31A1B0B00FB38
:1058800003F000F10040E4E7436BDBE7B0F90420EC
:10589000C36A02F500425B00B3EB024F4FEA0241DC
:1058A00004D8CA4393428CBFDB430B4647F6FF71D3
:1058B000806A034A984234BF08461046704700BFCA
:1058C0000180FFFFD0E90A138B42F0B4D0E9112523
:1058D00026D82E461546761B4B0C06FB03F3B0F973
:1058E0000420DB13002A26DD184C0F0EA01C30F814
:1058F000170034F81740C1F30F21001B01FB00F122
:1059000004EB1141C1F34E0106FB01F1C3EBE131A0
:1059100002FB01F2581900EBE23000B2F0BC704714
:105920000B4A0C4E13680C4C456406FB03431E14D3
:1059300013608664CFE702F5FF427F3203FB02F07B
:1059400005EBE03000B2F0BC704700BF3CA7000898
:10595000D40000200D6619005FF36E3C1D49D0F89D
:10596000F43070B49A0D8D1C31F9124035F91210D3
:10597000C3F38F13091BB0F9042003FB01F1C2EB41
:105980004213C2EBC32304EB2141DB130CB203F53A
:10599000006304FB03F3104803F100439D0D861CD4
:1059A00030F9150036F91550C3F38F132D1A03FB88
:1059B00005F302F5FF4200EB23407F3200B2001BEB
:1059C000521002FB00F270BC89B201EBE23210B25D
:1059D000704700BFCCB2000820870008D0F8F43030
:1059E0001A4A70B4990D941C34F9114032F91120FF
:1059F000C3F38F1113F1804348BF6FEA4303A4EB55
:105A0000020401FB04F102EB214294B211B2104AEC
:105A100058BF5B009E0D951C35F9165032F91620C3
:105A2000C3F38F13AD1A03FB05F3B0F9040002EBC7
:105A3000234300F5FF407F301BB240105B1A00FB90
:105A400003F304EBE33000B270BC7047CCB2000843
:105A5000309B00081D49D0F8F43070B49A0D8D1CAD
:105A600031F9124035F91210C3F38F13091BB0F945
:105A7000042003FB01F1C2EB4213C2EBC32304EB8E
:105A80002141DB130CB203F5006304FB03F3104860
:105A900003F100439D0D861C30F9150036F91550B1
:105AA000C3F38F132D1A03FB05F302F5FF4200EB3E
:105AB00023407F3200B2001B521002FB00F270BC88
:105AC00089B201EBE23210B2704700BFCCB20008DD
:105AD000248F0008B0F90420B0F90C3130B493429F
